:02000004F90001
:100000009751000093810113176100001301819B38
:10001000174500001305C5E597450000938545E5A4
:100020001386418463FCC5008322050023A055008C
:100030001305450093854500E3E8C5FE138541841B
:10004000938581886378B50023200500130545005A
:10005000E36CB5FEEF000001EF00C01B6F00000075
:0400600067800000B5
:10006400130101FF232481002320210117440000F0
:100074001304C4DF17490000130949DF3309894019
:10008400232611002322910013592940630E0900ED
:100094009304000083270400938414001304440091
:1000A400E7800700E31899FE17440000130404DCFA
:1000B40017490000130989DB330989401359294082
:1000C400630E090093040000832704009384140042
:1000D40013044400E7800700E31899FE8320C1005D
:1000E4000324810083244100032901001301010139
:1000F40067800000B3C7A50093F73700B308C500B5
:10010400639207069307300063FEC70493773500B4
:10011400130705006398070613F6C8FF930706FE46
:10012400636CF708637CC702938605009307070096
:1001340003A80600938747009386460023AE07FF73
:10014400E3E8C7FE9307F6FFB387E74093F7C7FFDB
:10015400938747003307F700B385F50063681701F9
:100164006780000013070500E37C15FF83C70500C3
:100174001307170093851500A30FF7FEE36817FF15
:100184006780000083C605001307170093773700C4
:10019400A30FD7FE93851500E38007F883C60500F7
:1001A4001307170093773700A30FD7FE9385150025
:1001B400E39A07FC6FF05FF683A6050083A245006F
:1001C40083AF850003AFC50083AE050103AE4501CF
:1001D40003A3850103A8C501938545022320D70005
:1001E40083A6C5FF232257002324F7012326E70112
:1001F4002328D701232AC701232C6700232E0701B4
:1002040013074702232ED7FEE368F7FA6FF09FF136
:10021400374500F9130101FF1305C52423261100F6
:10022400232481002322910023202101EF00C073A5
:100234001305A000EF0080711305D000EF000071DA
:10024400EF009047B7C7B0F803A787FFB7E7F505F6
:10025400938707103307F700B7C6B0F883A786FF64
:10026400B307F740E3DC07FE37440F00EF00504AC2
:10027400370901F8B7C4B0F81304042483274900EC
:1002840093D78701639E070003A784FF3307870082
:1002940083A784FFB307F740E3DC07FE6FF01FFE7C
:1002A400EF0090576FF09FFD370701F88327470051
:1002B40093D7070193F7F70FE38A07FE2320A700DC
:1002C40067800000130101F823263105232441052A
:1002D400232AF106B74900F993074106374A00F982
:1002E400232821052322510523206105232E710390
:1002F400232C8103232E1104232C8104232A91040B
:10030400232A9103930A05002322B1062324C1065C
:100314002326D1062328E106232C0107232E1107C7
:100324002326F10013090000130B5002930B30062F
:10033400374C00F99389C9FE130A0A00B3872A01CE
:1003440003C50700631C05028320C105032481053E
:1003540083244105032901058329C104032A810457
:10036400832A4104032B0104832BC103032C81033F
:10037400832C41031301010867800000631E650399
:10038400130730079306400613068005930580077C
:100394001305600613091900B3872A0183C70700F0
:1003A400638E0702639E77018327C10003C507009C
:1003B400138747002326E100EFF01FEF6F000002D0
:1003C4006398E7028327C10003A40700138747004B
:1003D4002326E100034504006316050013091900F0
:1003E4006FF0DFF513041400EFF01FEC6FF09FFEC5
:1003F4006392D7068327C10083A4070013874700AD
:100404002326E10063D804001305D002EFF0DFE9EE
:10041400B304904013040101930C04001307A000DB
:10042400639E0400630C94011304F4FF0345040069
:10043400EFF09FE7E31A94FF6FF05FFAB3E7E4028B
:100444001304140093870703A30FF4FEB3C4E40258
:100454006FF01FFD639EC7028327C1001304C00110
:100464009304C0FF83AC0700138747002326E100F1
:10047400B3D78C0093F7F700B307FA0003C507005E
:100484001304C4FFEFF05FE2E31494FE6FF01FF572
:10049400639EB7028327C1001304C0019304C0FF05
:1004A40083AC0700138747002326E100B3D78C00F1
:1004B40093F7F700B387F90003C507001304C4FFDB
:1004C400EFF09FDEE31494FE6FF05FF1E394A7EC8A
:1004D40013040CFA6F00C00013041400EFF0DFDC07
:1004E40003450400E31A05FE6FF05FEFB70710F849
:1004F4003305F5000325050067800000B70710F8F1
:10050400B385F50023A0A50067800000032705003C
:10051400B70710F823A2E7020327850023A4E70204
:100524000327C50023A6E7020327450023A8E70203
:100534000327050123AAE7020327850123ACE70269
:100544000327C50123AEE7020327450123A0E704DF
:100554000327050223A2E7040327450223A4E70493
:1005640067800000130101FA232A9104232821053E
:10057400232E1104232C8104232631052324410531
:100584002322510523206105232E7103232C81038B
:10059400B70720F823A40700370710F82320070221
:1005A400232607041307100023A4E700B7C7B0F8F5
:1005B40003A787FFB7E7F505B76410AC9387071067
:1005C400138944413307F7009384A440B7C6B0F8B5
:1005D40083A786FFB307F740E3DC07FE374500F93E
:1005E400370410F813054501EFF0DFCD2328240567
:1005F400232A9404232C94049307204D232EF404DB
:100604009307304D2320F406B74500F993070046BD
:10061400232AF40613068002938505E713050100D7
:10062400EFF05FAD13050100EFF05FEE93071000EC
:100634002326F404374900F92320F402B70A10F8FA
:1006440013040000374B00F91309C9FE930BC0FFD4
:10065400374A00F99309900193172400B38757018F
:100664009305040013058B0303AC07009304C00136
:10067400EFF05FC5B3579C0093F7F700B307F90099
:1006840003C507009384C4FFEFF01FC2E39474FF13
:1006940013058A0513041400EFF0DFC2E31E34FBD4
:1006A400374500F91305C504EFF0DFC1B7C7B0F84B
:1006B40003A787FFB7574C00938707B43307F700A6
:1006C400B7C6B0F883A786FFB307F740E3DC07FE9D
:1006D4008320C105032481058324410503290105E1
:1006E4008329C104032A8104832A4104032B0104BE
:1006F400832BC103032C81031301010667800000CF
:100704002320B500678000000325050067800000F2
:10071400631C0502B74700F99387470D370601F8B4
:100724006F00C00193871700032746001357070182
:100734001377F70FE30A07FE2320D60083C60700CA
:10074400E39206FE6F00000067800000B70710F810
:1007540023A4A70023A6B70023A8C700678000002E
:10076400B70710F803A5070083A747003355F50220
:1007740067800000130101FE232E1100232C810049
:10078400232A910023282101232631012324410116
:1007940023225101EFF0DFFC93840186EF30C04E39
:1007A4009305050003A5C40013840186EF20507F40
:1007B40083A9440123A8A400130905009385090013
:1007C400EF20107E83A5C401EF20504583A50402C9
:1007D400130A050013050900EF2050449305050092
:1007E40013050A00EF20C064130A0500938509006D
:1007F40013850900EF20C063930505001305090064
:10080400EF20107A83A58401EF20806283A544023F
:10081400EF20D0409305050013050A00EF20406146
:1008240003AA0400B7040080930A0500B3C444017A
:1008340093850400EF205032634E050093050A00AF
:1008440013850A00EF20102593040A006344A000D6
:1008540093840A008325840013850400B704008070
:10086400EF20005D032A4400930A0500B3C4440149
:1008740093850400EF20502E634E050093050A0073
:1008840013850A00EF20102193040A006344A0009A
:1008940093840A0023249400232C3401232A240162
:1008A40013850400EF3000388320C1010324810143
:1008B40083244101032901018329C100032A810002
:1008C400832A41001301010267800000130101FF24
:1008D40023261100EF30403B8320C100938701861B
:1008E40023A6A7001301010167800000130101FF83
:1008F40023248100138401862322910093040000A1
:100904002324940023261100EF30003883A781822A
:10091400232C9400232294022320F40083A7C18271
:100924002326A4008320C1002322F40083A701838B
:1009340083244100232EF40083A741832320F4025F
:10094400032481001301010167800000370701F8C7
:100954008327470093D7070193F7F70FE38A07FE2E
:100964002320A70067800000130101FF23248100D6
:10097400232611001304050003450400631A05002F
:100984008320C1000324810013010101678000005A
:1009940013041400EFF09FFB6FF01FFE130101F826
:1009A4002326310523244105232AF106B74900F9FA
:1009B40093074106374A00F92328210523225105CC
:1009C40023206105232E7103232C8103232E11047C
:1009D400232C8104232A9104232A9103930A0500DA
:1009E4002322B1062324C1062326D1062328E106A7
:1009F400232C0107232E11072326F10013090000DD
:100A0400130B5002930B3006374C00F99389C9FE3F
:100A1400130A0A00B3872A0103C50700631C0502F1
:100A24008320C1050324810583244105032901058D
:100A34008329C104032A8104832A4104032B01046A
:100A4400832BC103032C8103832C4103130101086D
:100A540067800000631E6503130730079306400692
:100A64001306800593058007130560061309190012
:100A7400B3872A0183C7070063820708639E77014F
:100A84008327C10003C50700138747002326E1001D
:100A9400EFF0DFEB6F008006639EE7008327C10061
:100AA40003A50700138747002326E100EFF0DFEBDF
:100AB4006F00C0046394D7068327C10083A4070092
:100AC400138747002326E10063D804001305D002EE
:100AD400EFF0DFE7B304904013040101930C04002A
:100AE4001307A00063900402630E94011304F4FF3F
:100AF40003450400EFF09FE5E31A94FF130919007E
:100B04006FF05FF1B3E7E402130414009387070363
:100B1400A30FF4FEB3C4E4026FF0DFFC639EC702CC
:100B24008327C1001304C0019304C0FF83AC0700F2
:100B3400138747002326E100B3D78C0093F7F7000F
:100B4400B307FA0003C507001304C4FFEFF01FE066
:100B5400E31494FE6FF09FFA639EB7028327C100EB
:100B64001304C0019304C0FF83AC0700138747003C
:100B74002326E100B3D78C0093F7F700B387F9007D
:100B840003C507001304C4FFEFF05FDCE31494FE15
:100B94006FF0DFF6E39CA7EC13050CFA6FF01FF17E
:100BA4001386050093050500374500F9130101FF7D
:100BB4001305450E23261100EFF05FDE6F000000E1
:100BC400130101FE13054006232E1100232C81007E
:100BD400232A9100232821012326310123244101C2
:100BE4002322510123206101EFF05F90130B0500D4
:100BF40013058006EFF09F8F130405001305C0064C
:100C0400EFF0DF8E9304050013050007EFF01F8E4D
:100C140083A7C185639E670183A78185639A870043
:100C240083A741856396970083A701856388A70AF4
:100C340023AC818423AA918423A8A18423AE618553
:100C4400130505F8EF20C01203A6818183A6C18194
:100C54001304441293840408EF10102403A60182A1
:100C640083A64182EF10001BEF2040081306050005
:100C740063540500130600009385040063D4040044
:100C840093050000130504006354040013050000D9
:100C9400EFF0DFAB13050B00EFF05FC3032481011A
:100CA40003A7018583A6418503A6818583A5C18504
:100CB4008320C10183244101032901018329C10047
:100CC400032A8100832A4100032B0100374500F9E0
:100CD40013054510130101026FF05FCC8320C1019D
:100CE4000324810183244101032901018329C100D3
:100CF400032A8100832A4100032B0100130101020E
:100D040067800000130101FF2324810003D5C184FF
:100D14002326110023229100EFF0DFA593040500A0
:100D2400EFF01FA483A681841306900013870700A5
:100D34009386160023A4D1846360D60283D7C1842A
:100D4400B387974093D6F741B3C7F600B387D7402C
:100D54009306A00063D4F60023A4018493940401B1
:100D640093D40401938504001305C021EF00806E21
:100D740023969184032481008320C10083244100AD
:100D8400130101016FF0DFE3130101FF232481004C
:100D940023229100232611003704E0F89304300144
:100DA40083254400639C05008320C1000324810043
:100DB40083244100130101016780000063989500BA
:100DC400EFF05FF4232294006FF09FFD374500F9A4
:100DD40013050515EFF0DFDC130101FF23261100D5
:100DE400F327203493F5F70063DC07009307B00082
:100DF4006398F5008320C100130101016FF0DFF84F
:100E0400374500F913058515EFF09FD993071000B6
:100E1400B397A700135555003727C0F813152500BD
:100E24003305E5000327050063880500B3E7E70001
:100E34002320F5006780000093C7F7FFB3F7E700AE
:100E44006FF01FFF130101FF23261100B707E0F81D
:100E540023A007003727C0F883270700B706080038
:100E6400374500F9B3E7D7002320F700B707C0F8E8
:100E74001307200023A6E70413050516EFF01FB29D
:100E8400B72700F99387878E73905730B717000000
:100E94009387078073A04730B787000093878780C4
:100EA400739007308320C100374500F913054517B7
:100EB400130101016FF09FAE130101FF23261100FE
:100EC400EFF04FEAEF00802E13051000EF00C0583A
:100ED40013068025930500101305401AEFF01F87B1
:100EE400374500F91305C518EFF05FAB1305000093
:100EF400EFF0DF9F37959800130505689305000010
:100F0400EF0050198320C100130101016FF09FF31A
:100F1400374500F9130101FE1305451A232E11006C
:100F2400232C8100232A9100232821012326310127
:100F340023244101EFF09FA6374500F91305451C12
:100F4400B74400F9EFF09FA5938484E913090000E6
:100F5400374A00F9374400F9930960009305090002
:100F640013058A1EEFF09FA303A584021309190039
:100F74009384C402EFF09FA213058405EFF01FA22F
:100F8400E31E39FD13058405EFF05FA1374500F931
:100F94001305051FEFF09FA0B74400F99305100651
:100FA40013858420EFF09F9F375500F91305459072
:100FB400EFF09F9B13058405EFF05F9E93052006D9
:100FC40013858420EFF09F9D375500F91305859113
:100FD400EFF09F9913058405EFF05F9C138584203F
:100FE40093053006EFF09F9B375500F91305C59222
:100FF400EFF09F9713058405032481018320C10129
:1010040083244101032901018329C100032A8100AA
:10101400130101026FF09F98130101FB23261104B1
:10102400232481042322910423202105232E310328
:10103400370701F88327470093D78701E38C07FE1E
:1010440003240700238281841374F40F130404FD22
:1010540023A881809309500063E2890C374500F985
:1010640013050521EFF09F939307C0023304F402A4
:10107400B74500F9938585E9338485000325840207
:10108400EFF0DF91374500F91305C521EFF01F910B
:10109400B726C0F883A706003707F8FF1307F7FF42
:1010A400B3F7E70023A0F6001306800293050400BB
:1010B40013050100EFF00F8413050100EFF00FC5D5
:1010C40003A7018163E4E90293071000B397E700E3
:1010D40013F70703631A070A13F7C700631007021D
:1010E40093F7370013051000639C0700374500F998
:1010F40013054522EFF09F8A6F00C00013052000FE
:10110400EF0080353727C0F883270700B7060800AB
:10111400B3E7D7002320F700EFF09FDF03C4418437
:10112400930720001304F4F923A8818063E287065F
:10113400374500F913050521EFF05F869307400159
:10114400B307F402375500F9130545903305F5004C
:10115400EFF0DF84374500F91305C521EFF01F8454
:10116400130504009305C007EFF04FB9032481046D
:101174008320C10483244104032901048329C10376
:10118400130101056FF0DFD8130500006FF05FF75E
:101194008320C1040324810483244104032901041A
:1011A4008329C1031301010567800000B76701F8B3
:1011B4001307300023A4E702378701001307076AE7
:1011C40023A6E7021307800C23A8E7021307401F96
:1011D40023A8E70423AAE7041307803E23ACE7040B
:1011E4006780000013071030B76701F823A2E700F7
:1011F400376701F88327470093F70710E39C07FE3E
:101204006780000013070021B76701F823A0E704F3
:10121400376701F88327070493F70701E39C07FE68
:101224006780000013070042B76701F823A0E704B2
:10123400376701F88327070493F71700E39C07FE39
:1012440067800000130101FD23261102232481027B
:101254002322910223202103232E31011389050027
:10126400930906002326A100EFF0DFF90325C1004E
:10127400B7140000938404B0131515001375F50F0B
:10128400376401F8336595002320A400EFF09FF53F
:101294000325C4001375F50F13351500EFF04FC780
:1012A40093578900B3E797009397070193D70701F2
:1012B4002320F400EFF01FF30325C4001379F90F82
:1012C400336999001375F50F13351500EFF04FC40A
:1012D40023202401EFF01FF10325C400B3E4990097
:1012E4001375F50F13351500EFF08FC2232094000A
:1012F400EFF05FEF0325C4001375F50F13351500E8
:10130400EFF00FC1032481028320C1028324410230
:10131400032901028329C101130101036FF09FF026
:10132400130101FE232A910093040500232E1100CA
:10133400232C810023282101232631011389050050
:101344002324410193941400EFF0DFEBB71900005C
:10135400138A09B093F7F40F376401F8B3E7470130
:101364002320F400EFF01FE80325C40093E41400E5
:1013740093F4F40F1375F50F13351500EFF04FB90F
:1013840093578900B3E747019397070193D7070160
:101394002320F400EFF01FE50325C4001379F90FAF
:1013A400336949011375F50F13351500EFF04FB686
:1013B40023202401EFF01FE30325C400B3E4440118
:1013C4009389F9BF1375F50F13351500EFF04FB47A
:1013D400EFF05FE5EFF01FE323209400EFF09FE0D0
:1013E4000325C4001375F50F13351500EFF04FB244
:1013F40023203401EFF01FDF0325C4001375F50F1C
:101404003335A000EFF0CFB003248400EFF09FE168
:101414008320C1011375F40F032481018324410146
:10142400032901018329C100032A81001301010258
:10143400678000006F00001B6F00001B6F00001B23
:101444006F00001B6F00001B6F00001B6F00001B70
:101454006F00001B6F0080016F00C006138605003B
:10146400930505001305A0016FF0DFDD130101FFF3
:101474002324810023229100130405009384050092
:101484001305E02093D5850023261100EFF01FFDFE
:1014940093F5F40F1305F020EFF05FFC93558400EF
:1014A40013054020EFF09FFB9375F40F0324810094
:1014B4008320C1008324410013055020130101013E
:1014C4006FF0DFF9130101FE232C8100374400F98A
:1014D4002328210113094426232A910023263101BC
:1014E40023244101232E110093090500130A090C3A
:1014F40013044426B74400F9834529000355090021
:1015040013094900EFF09FF5E31849FF9307100012
:10151400638AF908638C0904930720006384F90A39
:10152400930500001305C021EFF05FF4930530002C
:1015340013052020EFF09FF293058000130530205F
:10154400EFF0DFF1032481018320C10183244101F1
:10155400032901018329C100032A81009305100096
:1015640013050010130101026FF05FEF93844432FE
:101574001304C42283C5240003D5040093844400C7
:10158400EFF0DFEDE31894FE930510001305E0304F
:10159400EFF0DFEC9305E0021305F030EFF01FEC01
:1015A4006FF01FF89304C4221304843983C5240004
:1015B40003D5040093844400EFF05FEAE31894FE3B
:1015C4006FF01FF6930484391304445083C5240038
:1015D40003D5040093844400EFF05FE8E39884FEAD
:1015E4006FF01FF4678000006780000067800000D0
:1015F400678000006780000067800000678000004B
:1016040063080504130101FF23248100130500600E
:10161400138405009305000023261100EFF01FE456
:101624009305040013051060EFF05FE39305F00FDA
:1016340013052060EFF09FE2032481008320C100A2
:101644009305F00F13053060130101016FF01FE1E2
:1016540067800000370701F88327470093D7070105
:1016640093F7F70FE38A07FE2320A70067800000A3
:10167400130101F8232631052324410523225105B2
:10168400232AF106B74900F993074106374A00F9BE
:10169400B74A00F92328210523206105232E71036D
:1016A400232E1104232C8104232A9104232C810347
:1016B4002322B1062324C1062326D1062328E106CA
:1016C400232C0107232E11072326F1001309000000
:1016D40093898976130B5002B74B00F9130ACAFE9B
:1016E400938A0A00B307390103C50700631A050288
:1016F4008320C105032481058324410503290105B1
:101704008329C104032A8104832A4104032B01048D
:10171400832BC103032C810313010108678000009C
:101724006310650513073006930630071306400659
:101734009305800513058007130860061309190033
:10174400B387290183C70700638E0702639EE700FE
:101754008327C10003C50700138747002326E10040
:10176400EFF05FEF6F0000026398D7028327C10098
:1017740003A40700138747002326E1000345040060
:1017840063160500130919006FF0DFF51304140044
:10179400EFF05FEC6FF09FFE6392C7068327C100F2
:1017A40083A40700138747002326E10063D80400BD
:1017B4001305D002EFF01FEAB304904013040101B3
:1017C400130C04001307A000639E0400630C84013F
:1017D4001304F4FF03450400EFF0DFE7E31A84FF8A
:1017E4006FF05FFAB3E7E40213041400938707036E
:1017F400A30FF4FEB3C4E4026FF01FFD639EB702AF
:101804008327C1001304C0019304C0FF03AC070085
:10181400138747002326E100B3578C0093F7F700A2
:10182400B387FA0003C507001304C4FFEFF09FE277
:10183400E31494FE6FF01FF5639EA7028327C10093
:101844001304C0019304C0FF03AC070013874700CF
:101854002326E100B3578C0093F7F700B307FA008F
:1018640003C507001304C4FFEFF0DFDEE31494FEA6
:101874006FF05FF1E39407ED13840BFA6F00C0007F
:1018840013041400EFF01FDD03450400E31A05FE02
:101894006FF05FEF130101FF232481002326110061
:1018A400377401F8930730062320F400B7070100CA
:1018B400938727002320F4041306400693060000B0
:1018C400EF00400B1305F5FF2322A4040324810039
:1018D4008320C100374500F9130585761301010102
:1018E4006FF01FD9130101FC2320110023225100A2
:1018F40023246100232671002328A100232AB10098
:10190400232CC100232ED1002320E1022322F10243
:1019140023240103232611032328C103232AD103EB
:10192400232CE103232EF103EFF00FCB83200100DE
:1019340083224100032381008323C1000325010185
:1019440083254101032681018326C1010327010266
:1019540083274102032881028328C102032E010345
:10196400832E4103032F8103832FC1031301010439
:1019740073002030938706009308060013030500C4
:10198400138805006396061A63FCC50C370701002B
:101994006364E622B7070001636AF6409356860142
:1019A40093078001173700001307C7E53307D700F3
:1019B40003470700B307F700130700023307F74094
:1019C400630C07003398E500B357F500B318E6003D
:1019D40033E807013313E50013D608013355C80271
:1019E4009396080193D60601935703013377C802EF
:1019F400B385A602131707013368F700637CB800A8
:101A0400330818019307F5FF636418016368B83E4F
:101A1400138507003308B8403357C8021313030172
:101A2400135303013378C802B386E602131808017E
:101A340033686800637ED800338808019307F7FF92
:101A4400636618011307E7FF6364D8001387070070
:101A5400131505013365E500930500006780000058
:101A64006316060013071000B358C70237070100B6
:101A740063E8E812B707000163E0F83493D68801FD
:101A840093078001173700001307C7D73307D70020
:101A940083460700B386F60093070002B387D74056
:101AA40063980712939E08013387154113DF0801D9
:101AB40093DE0E0193051000935703013355E7039A
:101AC4003377E703B306D50313170701B367F700AA
:101AD40063FCD700B38717011307F5FF63E417010D
:101AE40063E4D73213050700B387D74033D7E7033E
:101AF4001313030113530301B3F7E703B30ED7031F
:101B040093970701B3E7670063FED701B387F80033
:101B14009306F7FF63E617011307E7FF63E4D701B2
:101B240013870600131505013365E500678000007F
:101B340063E8D504B707010063EAF604B7070001B8
:101B440063E0F62613D78601130880019737000057
:101B5400938747CBB387E70003C70700130E000240
:101B640033070701330EEE4063160E1063ECB62400
:101B74003335C50013451500930500006780000048
:101B84009305000013050000678000009307F00F21
:101B940063F0D72413D78600130880006FF01FFB6F
:101BA4001307F00F93860800E37E17ED93D68800A1
:101BB400930780006FF01FED1307F00F93060600E4
:101BC400E372C7DE93568600930780006FF09FDDB3
:101BD400B398F80033D6D50013DF0801335EE6036B
:101BE4003397F500B356D50033E7E600939E08011A
:101BF40093DE0E013313F50093550701B376E60324
:101C0400B387CE0393960601B3E6B60063FEF600EF
:101C1400B38616011306FEFF63EE161D63FCF61C65
:101C2400130EEEFFB3861601B386F64033D6E603F1
:101C34009317070193D70701B3F6E6033385CE0262
:101C4400139706013367F700637EA7003307170174
:101C54009307F6FF636817196376A7181306E6FF60
:101C64003307170193150E013307A740B3E5C500E9
:101C74006FF09FE4B357E600B396C601B3E6D7000E
:101C840033D3E50013DF0601B357E303939E060144
:101C940093DE0E013398C5013357E500336807011D
:101CA400935808013316C6013373E303B385FE0268
:101CB40013130301B368130163FEB800B388D8009B
:101CC4001387F7FF63E4D81263F2B8129387E7FF30
:101CD400B388D800B388B84033D7E8031318080191
:101CE40013580801B3F8E8033383EE02939808010C
:101CF400B3E5080163FE6500B385D5001308F7FF5B
:101D040063EED50C63FC650C1307E7FFB385D500C0
:101D140093970701370F0100B3E7E7001307FFFFAD
:101D2400B3F6E70093D807013377E60013560601AC
:101D3400B38EE602B3856540B386C60213D80E019E
:101D44003387E802B386E600B306D8003386C802B8
:101D540063F4E6003306E60193D806013386C8002F
:101D640063EAC5026388C500138507009305000074
:101D740067800000370701001307F7FFB3F6E6009A
:101D840093960601B3FEEE003315C501B386D60162
:101D9400E37CD5FC1385F7FF930500006780000002
:101DA40013D70601130800016FF05FDA935606019A
:101DB400930700016FF01FBF93D60801930700013A
:101DC4006FF05FCC930500001305100067800000DE
:101DD40013870600130800006FF05FD7130708008D
:101DE4006FF01FF3138607006FF0DFE79307070018
:101DF4006FF05FEE130E06006FF01FE31305E5FFAF
:101E0400330818016FF01FC11305E5FFB3871701ED
:101E14006FF09FCD37081000130101FE1308F8FF7F
:101E24003377B800232A91003378D80093D445013E
:101E340013D34601131E3700232631011357D5014E
:101E4400131838009357D60193F4F47F1373F37F78
:101E5400232E1100232C81002328210193D9F5017D
:101E640093DEF6013367C701131F350033E807011A
:101E7400931F3600338E64406384D91D6358C017A2
:101E8400630A0320B70680009307F07F3368D80005
:101E9400638EF4409307800363CAC73D9307F00140
:101EA40063C6C755130500023305C541B3D7CF0137
:101EB400B316A8003399AF00B3E6F6003339200116
:101EC400B357C80133E926013307F74033092F41DB
:101ED400B3372F013306F7409317860063D2072ADE
:101EE400370780001307F7FF3374E600630E0434EA
:101EF40013050400EF10906B130785FF930700028E
:101F0400B387E740B357F9003316E400B3E7C700DB
:101F14003319E900634C97303305974013061500D5
:101F24001307F0016346C744130700023307C74091
:101F3400B356C9003319E9003397E7003367D70074
:101F4400333920013369270133D6C70093040000D5
:101F540093777900638007021377F90093074000B1
:101F6400630AF700130749003339270133062601B2
:101F7400130907009317860063D8072013851400FC
:101F84009307F07F93850900630CF524B70780FF5E
:101F94009387F7FFB377F6009398D7011359390065
:101FA40093979700B3E8280193D7C7001375F57F7B
:101FB4009396C700131545018320C10103248101B1
:101FC40093D6C6009395F501B3E6A600B3E6B60032
:101FD40083244101032901018329C10013850800D9
:101FE40093850600130101026780000063140E0C40
:101FF400138314001373E37F63100328B367E701AB
:10200400B368F8016396041E6380074C6388085024
:102014003309FF41B307074133362F013386C740E5
:102024009317860063D4075A3389EF41B307E84016
:1020340033B62F013386C74093890E006FF05FF1EA
:10204400635AC00F6308030CB70680009307F07F40
:102054003368D800638EF4449307800363CCC715B8
:102064009307F00163DAC73F13090EFE93070002DA
:10207400B3562801630AFE00130900043309C94159
:1020840033192801B3EF2F013339F0013369D90033
:102094006F00C012B367F801638607229307FEFF3F
:1020A400638407449306F07F6302DE20138E0700E7
:1020B4006FF05FDEB305934063960428B367E701CE
:1020C4006382073C9387F5FF638C07509306F07F88
:1020D4006382D528938507009307800363CEB732C4
:1020E4009307F00163C2B74A93070002B387B7406E
:1020F4003319F700B356BF00B317FF003369D90093
:10210400B337F0003357B7003369F9003308E840B8
:102114006F000031B367F8016384073E9307FEFF45
:10212400638207289306F07F6304DE38138E07006A
:102134006FF09FF263160E1A9386140093F7E67FEE
:10214400639A073EB367E701639E04346388074AD2
:10215400B367F8016384073C3309FF01B307070140
:10216400333FE9013386E7019317860063DA0700FA
:10217400B70780FF9387F7FF3376F60093041000C8
:1021840093777900E39A07DC9317D60193583900C3
:10219400B3E8F800935736001307F07F638AE40628
:1021A4009397C70093D7C70013F5F47F938509006D
:1021B4006FF01FE03369F801333920013309E90175
:1021C400B337E9013386E70093178600E3DA07FAA9
:1021D400938414009307F07F6396F41E938509009B
:1021E4001305F07F93070000930800006FF05FDC95
:1021F400639C070A63840846931636009317D80134
:1022040093D63600B3E8D70093890E00935738006D
:10221400B3E7F800E38407FC930500001305F07F9F
:10222400B7070800930800006FF09FD8370680FFB7
:102234001306F6FF33F6C70093777900B384E440BE
:10224400E39C07D06FF05FF413050900EF1010361C
:10225400130785019307F001E3D2E7CA130685FF4C
:10226400B317C900130900006FF0DFCA3369F8011E
:10227400333920016FF09FC53309FF41330607410D
:1022840033342F01330486409317840063CC072C26
:10229400B3688900E39C08C4930700009309000015
:1022A400930400006FF0DFEFE39808F61315350090
:1022B4009317D70113553500B3E8A7009357370098
:1022C4006FF01FF5131535009317D701135535001B
:1022D400B3E8A70093040E00935737006FF0DFEBC9
:1022E40033059340638A0414B70680009307F07F94
:1022F4003367D7006306F3389307800363C0A728C6
:102304009307F00163C6A73293070002B387A7407F
:102314003319F700B356AF00B317FF003369D90080
:10232400B337F0003357A7003369F9003308E800E6
:102334003309F901B337F901338607019304030024
:102344006FF09FE8B70680009307F07F3367D700EC
:10235400E314F3D89317360093D737009318D801B2
:10236400B3E8170193890E00935738006FF05FEAC2
:10237400130715FE9306000233D7E700630AD6005D
:10238400930600043386C6403396C7003369C900F8
:10239400333920013369E900130600009304000077
:1023A4006FF01FDE3309FF01B30707013336E9017C
:1023B4003386C7009317860093041000E3D207DC2A
:1023C40093042000B70780FF9387F7FFB377F600E5
:1023D4001357190013791900336927019398F701EA
:1023E40033E9280113D617006FF09FB613090EFEC8
:1023F40093070002B3562801630AFE001309000480
:102404003309C94133192801B3EF2F013339F001DE
:102414003369D9006FF09FAB3369E7013339200189
:1024240033892F41B3B72F013306F84093040300D7
:1024340093890E006FF05FAAB367E701638C071CF2
:102444009307F5FF638407229306F07F6304D51690
:10245400138507006FF05FEA93070002B387C74153
:10246400B316F8003399FF0033D6CF01B3E6C600A4
:1024740033392001B357C80133E926013307F70084
:102484006FF0DFD39317360093D737009318D80132
:10249400B3E81701938405009357380093890E001D
:1024A4006FF09FCF638807103369F801E31609D6EC
:1024B400131535009317D70113553500B368F5008C
:1024C400935737006FF0DFD46386081093163600F5
:1024D4009317D80193D63600B3E8D70093890E003A
:1024E400935738006FF0DFCB3309FF41B30707413F
:1024F400333F2F013386E741930410006FF0DF9DD3
:10250400131535009317D70113553500B368F5003B
:1025140093040E00935737006FF01FC8131535004E
:102524009317D70113553500B3E8A7009357370025
:102534006FF01FC79307F07FE382F6CA3309FF01E8
:102544003336E901B3070701B387C7009398F7014E
:102554001359190033E9280113D617009384060090
:102564006FF01FC23389EF413307E84033B62F01C0
:102574003304C74093890E006FF05F973369E70116
:10258400333920016FF0DFDA938705FE93060002EA
:10259400B357F700638AD50093060004B385B640A9
:1025A4003317B700336FEF003339E0013369F900B3
:1025B4006FF01FE79317360093D737009318D801AD
:1025C400B3E81701935738006FF09FC4B368C9008C
:1025D400E39808BA93070000930900006FF05FBC0A
:1025E4003389EF41B307E84033B62F013386C74040
:1025F40093890E00930410006FF01F8E931636001B
:102604009317D80193D63600B3E8D7009357380010
:102614006FF01FB9931636009317D80193D636007E
:10262400B3E8D70093040500935738006FF0DFB682
:10263400930705FE93060002B357F700630AD5001B
:10264400930600043385A6403317A700336FEF00C9
:102654003339E0013369F9006FF09FCD9305000031
:102664001305F07FB70708006FF09F943309FF014B
:10267400B30707013336F9013386C7006FF09FD3E0
:10268400931636009317D80193D63600B3E8D700D3
:10269400935738006FF0DFB7130101FC93D745015E
:1026A400232C810223282103232441031394C500EE
:1026B400232E1102232A91022326310323225103BC
:1026C40023206103232E710193F7F77F130905007B
:1026D4001354C40013DAF501638C07141307F07F55
:1026E4006388E720131534001354D9013364A4001C
:1026F400370580003364A40093143900138B17C08A
:1027040093090000930B000093D746011399C60068
:1027140093F7F77F1359C90093DAF6016382071818
:102724001307F07F638CE704131539001359D6019E
:102734003369A900938717C0370580003369A9005E
:1027440093153600330BFB0013080000B3465A01FF
:102754009307F0001385060013061B0063EC372172
:10276400972700009387070293992900B389F900FA
:1027740003A709003307F70067000700B365C90022
:10278400130BFB7F6390051C93E9290013090000D8
:10279400130820006FF09FFB930600009307F07F5F
:1027A40037040800930400001314C40093974701EE
:1027B4001354C4009396F6013364F4003364D400D4
:1027C400930504008320C1030324810313850400BB
:1027D40003290103832441038329C102032A8102BB
:1027E400832A4102032B0102832BC101130101043B
:1027F4006780000013850A00130409009384050010
:10280400930B080093072000638CFB14930730009C
:10281400E384FBF893071000930605006394FB4CD4
:102824009307000013040000930400006FF0DFF727
:10283400B364A400638E040E2326D1002324C100B4
:102844006308043813050400EF1040560326810082
:102854008326C10093070500930555FF1307D00194
:10286400938487FF3307B740331494003357E90048
:1028740033648700B3149900130BD0C0330BFB40AF
:1028840093D746011399C60093F7F77F9309000085
:10289400930B00001359C90093DAF601E39207E899
:1028A400B365C90063840506630C092E130509008A
:1028B4002324C100EF10804F0326810093070500F5
:1028C400930655FF1307D001938587FF3307D7403D
:1028D4003319B9003357E60033692701B315B6003D
:1028E400B307FB40138BD7C0130800006FF01FE63B
:1028F400B364A400639404021304000093098000E9
:10290400130BF07F930B20006FF01FE093E9190085
:1029140013090000130810006FF05FE3930405002F
:102924009309C000130BF07F930B30006FF0DFDDD1
:102934001304000093094000130B0000930B1000D4
:102944006FF09FDC93E9390093050600130830000B
:102954006FF0DFDF9307200013050A00E398FBEA1A
:10296400930605009307F07F13040000930400000E
:102974006FF09FE3370E01001307FEFF93D70401A6
:1029840013D80501B3F4E400B3F5E50033879502E9
:102994003383B70213550701B3089802B38868005C
:1029A40033051501338F070363746500330FCF01BB
:1029B400B70E01009388FEFF935209013379190180
:1029C400337315013377170113130301B308990205
:1029D4003303E30013550501B38F270313DE080106
:1029E400B3849202B384F401B3049E003387570284
:1029F40063F4F4013307D701B7090100138EF9FF1B
:102A0400B377C401B3FEC401935F040193D40401FA
:102A1400B3F8C801B383F502338EE400939E0E012C
:102A2400B38E1E013305D5013307F80293D8030191
:102A3400B385BF023307B700B388E8003308F8034F
:102A440063F4B80033083801370701001304F7FFB3
:102A5400B3F5880093D80801B3880801B3F3830061
:102A6400939505013308F902B385750033892F0363
:102A740013540801B387F202B3872701B307F400A4
:102A8400B38FF20363F42701B38FEF00B7020100A1
:102A94009382F2FF33F75700337858001317070176
:102AA4003305E50133070701B33ED5013307C701F9
:102AB4003305B5003304D701B335B5003308140129
:102AC400330FB8003337C7013334D401336487007C
:102AD40093D70701B3381801B335BF003304F400AA
:102AE400B3E5B800931495003304B4003304F4013F
:102AF400B3E4640013179400B334900013547F01BB
:102B04001355750193179F00B3E4A4003364870041
:102B1400B3E4F4009317740063D0070293D714004E
:102B240093F414001317F401B3E49700B3E4E4003E
:102B340013541400130B06001307FB3F6350E00CFF
:102B440093F774006380070293F7F40013064000C0
:102B5400638AC70093874400B3B497003304940096
:102B6400938407009317740063DA0700B70700FF24
:102B74009387F7FF3374F40013070B409307E07F48
:102B840063CAE71493D734009314D4011314940044
:102B9400B3E4F4001354C4009377F77F6FF0DFC0FD
:102BA400130506002324C100EF10402093065501AD
:102BB4001307C0019307050203268100E354D7D00D
:102BC400130585FF930500003319A6006FF05FD14C
:102BD400EF10C01D930555011307C00193070502AB
:102BE400032681008326C100E35AB7C6130585FF77
:102BF400930400003314A9006FF01FC813061000DB
:102C04003306E640631007069307EB413397F4005D
:102C1400B317F400B3D4C400B3E497003337E0002F
:102C2400B3E4E40093F774003356C40063800702EE
:102C340093F7F40013074000638AE7009387440086
:102C4400B3B4970033069600938407009317860065
:102C540063D40706930710001304000093040000D4
:102C64006FF09FB493078003E3CCC7BA9307F001D6
:102C7400E3DCC7F8930710FE3387E74093070002AD
:102C84003357E4006308F6009307EB43B317F400EB
:102C9400B3E4F400B3349000B3E4E40013F6740036
:102CA400130400006300060293F7F40013074000C6
:102CB40013060000E394E7F8131496001354C400B9
:102CC4001316D60193D43400B3E4C4009307000070
:102CD4006FF09FAD9307F07F13040000930400008E
:102CE4006FF09FAC130B06006FF01FE593D74501FF
:102CF400B70610001387F6FF93F7F77F1306E03F3C
:102D04003377B70093D5F501635EF6001306D0411F
:102D1400635EF600370500801345F5FF3385A50093
:102D2400678000001305000067800000130630432D
:102D34003306F6401308F0013367D7006350C80226
:102D440093063041B387F640B357F7003305F0409C
:102D5400E39C05FC13850700678000009387D7BEBA
:102D6400B317F7003355C500B3E7A7006FF01FFE94
:102D7400130101FF23261100232481002322910043
:102D8400630A05049357F541B3C4A700B384F44020
:102D94001304050013850400EF1040019306E0417D
:102DA400B386A6409307A0001354F40193F6F67F6C
:102DB40063C4A7061307B0003307A740B3D7E400E2
:102DC400130555019397C700B394A40093D7C70084
:102DD4006F004001130400009306000093070000F5
:102DE400930400009397C7009396460193D7C700B6
:102DF4001314F401B3E7D700B3E787008320C100BD
:102E04000324810013850400938507008324410073
:102E14001301010167800000130555FFB397A40057
:102E24009397C70093D7C700930400006FF09FFBEC
:102E3400130101FF370780001307F7FF13D875014B
:102E440023229100935475013373A70093F4F40F74
:102E5400B376B700232021011378F80F1359F50135
:102E6400232611002324810093D5F5019307030041
:102E74001385040013060900131E3300939E3600C5
:102E8400B38804416306B912635A100F6308081823
:102E94009307F00F6380F41AB7070004B3EEFE0043
:102EA4009307B00163CE173193070002B38717412C
:102EB400B397FE00B3D81E01B337F000B3E7F800B0
:102EC400B307FE40139757006350072037040004EC
:102ED4001304F4FF33F4870013050400EF00106DAE
:102EE4001305B5FFB317A400634C95203305954033
:102EF4001304150013070002330787403397E700D4
:102F04003337E000B3D78700B3E7E700930400004A
:102F140013F77700630A070013F7F70093064000DE
:102F24006304D70093874700139757006352071A27
:102F3400938414001307F00F13060900638CE41A3A
:102F44009397670093D7970013F5F40F8320C1007C
:102F540003248100939797009314750113D5970068
:102F6400336595001316F6018324410003290100FB
:102F74003365C50013010101678000006396080CE6
:102F8400138714001377E70F631A07186396042A4C
:102F9400630C0E26E38C0EFAB307DE411397570039
:102FA400635C072AB387CE41138905006FF05FF68F
:102FB400635E100D630E080A9307F00F638CF4062A
:102FC400B7070004B3EEFE009307B00163CE1727E2
:102FD40093070002B3871741B397FE00B3D81E01CD
:102FE400B337F000B3E7F800B387C701139757006E
:102FF400635C070C938414001307F00F638CE40ED6
:10300400B706007E13D717009386F6FF93F71700D1
:103014003377D700B367F7006FF09FEF638C0E0A26
:103024009388F8FFB307DE41E38E08E89307F00FB7
:10303400E398F4E6630E030A130600001305F00F89
:10304400B70740006FF09FF033079840639A04126B
:10305400630E0E181307F7FF630807209307F00F9A
:103064006318F81213890500138306006FF09FFCA0
:1030740063820E069388F8FFB307DE01E38808F63F
:103084009307F00FE392F4F46FF0DFFA6398080A01
:103094009384140013F7E40F6310071863100516E4
:1030A400630C0E1CE3840EEAB307DE01139757008A
:1030B40093040000635A0700370700FC1307F7FF67
:1030C400B3F7E7009304100013F77700E31607E45F
:1030D40013D337009307F00FE38EF4F493179300A0
:1030E40093D7970013F5F40F130609006FF01FE64A
:1030F400130609001305F00F930700006FF01FE596
:10310400370700FC1307F7FFB3F7E70013F777005F
:10311400B384A440E31207E06FF09FFB3304DE4165
:103124009317540063C40710E31804DA130600006D
:1031340013050000930700006FF05FE13307984028
:10314400638404089307F00FE300F8F2B707000460
:10315400336EFE009307B00163CAE71293070002BF
:10316400B387E740B317FE003357EE00B337F000E0
:10317400B367F700B387D701930408006FF01FE724
:103184009307F00FE300F8EEB7070004336EFE0078
:103194009307B00163CEE70A93060002B386E640C4
:1031A400B316DE00B357EE003337D000B3E7E700C1
:1031B400B387FE4093040800138905006FF09FD085
:1031C400930710006FF0DFCF630C0E0A1307F7FFAD
:1031D400B307DE0193040800E30A07E09307F00F46
:1031E400E31AF8F6138306006FF0DFE41383060096
:1031F40093040800138905006FF0DFEDE3060EE683
:10320400E38A0EE26FF05FE3638A0E04138605001F
:10321400938706006FF09FD39307F00FE38CF4ECD1
:10322400B307DE0193D717006FF01FEA3384CE4152
:10323400138905006FF05FCAE3140EFCE38E0EDE03
:10324400138905006FF05FE2930710006FF0DFD978
:10325400930710006FF0DFF5E39807E6130600000C
:10326400930700006FF09FCEB387CE41930408000C
:10327400138905006FF01FC5938706006FF01FCDFB
:1032840013830600930408006FF0DFE49307100033
:103294006FF05FEE93567501B70780009387F7FFD1
:1032A40013D6750193F6F60F1308F00FB3F8A700C1
:1032B4001357F501B3F7B7001376F60F13D5F501DD
:1032C400638A060363020603639A06026314060014
:1032D400638A0704638208046300A70613051000C9
:1032E400631E070267800000E38007FE1305E0FF0A
:1032F40067800000E39C08FE630CD602631406009A
:10330400E38E07FCE31CA7FC635AD602631805008E
:103314001305100067800000E31605FC1305F0FF99
:103324006780000013050000E39A08FA6780000034
:10333400E38A07FC6FF09FFB9306000063C8C60096
:10334400E3EE17F913050000E3FEF8F8E30807FCC1
:10335400130507006780000093567501B7078000C6
:103364009387F7FF13D6750193F6F60F1308F00F42
:10337400B3F8A7001357F501B3F7B7001376F60FA8
:1033840013D5F50163820605630E060163920604F4
:1033940063100602639E070013050000639E080085
:1033A40067800000E38407FE1305200067800000A7
:1033B400638E08026304A70413051000E30207FEEA
:1033C4001305F0FF67800000E39008FE6304D60253
:1033D40063140600E38207FEE310A7FE6352D602DD
:1033E400E31005FE1305100067800000E30A05FCE6
:1033F40067800000E38207FE6FF01FFB9306000066
:1034040063C8C600E3EA17FB13050000E3FAF8F803
:10341400E30807FA1305070067800000130101FDA4
:103424002324810213547501232E3101232C4101DD
:1034340093199500232611022322910223202103AC
:10344400232A5101232861011374F40F93D999009D
:10345400135AF501630004129307F00F6308F41480
:103464009397390037070004B3E9E700130414F80D
:1034740093040000130B000013D77501939A950071
:103484001377F70F93DA9A0013D9F501630807103D
:103494009307F00F6306F704939A3A00130717F89B
:1034A400B7070004B3EAFA003304E400130600008B
:1034B40033452A019307F000930605009305140091
:1034C40063E29718171700001307C72F939424007B
:1034D400B384E40083A70400B387E7006780070090
:1034E4001304F40F639C0A1293E4240013062000CF
:1034F4006FF01FFC130500001307F00FB70740001F
:103504008320C10203248102939797001317770144
:1035140093D797001315F501B3E7E700832441021D
:10352400032901028329C101032A8101832A41015C
:10353400032B010133E5A700130101036780000099
:103544009306090093890A00130B060093072000D1
:103554006302FB0E93073000E30EFBF893071000A1
:10356400138506006314FB22130700009307000071
:103574006FF01FF9639E090613D77501939A95009E
:103584001377F70F9304400013040000130B10008B
:1035940093DA9A0013D9F501E31C07EE63920A0249
:1035A40093E41400130610006FF09FF0639A09026D
:1035B400930480001304F00F130B20006FF0DFEB73
:1035C40013850A00EF00807E9307B5FF3304A440FF
:1035D400B39AFA001304A4F8130600006FF05FED29
:1035E4009304C0001304F00F130B30006FF0DFE8F6
:1035F400138509002326B100EF00407B9307B5FF34
:103604001304A0F8B399F9003304A4409304000010
:10361400130B00008325C1006FF01FE693E4340010
:10362400130630006FF0DFE89307200093060A00CA
:10363400E312FBF2138506001307F00F9307000053
:103644006FF01FEC370301009306F3FF13D6090153
:1036540093D80A01B3F7D900B3FADA0033885703D1
:10366400B389F80213570801B30A5603B389590101
:1036740033073701330616036374570133066600B4
:10368400B70701009387F7FFB376F7003378F800A4
:1036940093960601B3860601939966009357070132
:1036A400B339300193D6A601B387C7009397670057
:1036B400B3E6D900B3E9D7009397490063DA07006A
:1036C40013D7190093F71900B369F70013840500A1
:1036D4001307F4076356E00493F77900638A07003D
:1036E40093F7F900930640006384D7009389490057
:1036F4009397490063DA0700B70700F89387F7FF49
:10370400B3F9F900130704089307E00F63CAE70647
:103714009397690093D797001377F70F6FF05FDEE5
:1037240093071000B386E740630A07001306B0014D
:103734001307000093070000E344D6DC1307E409F1
:103744003397E9003337E000B3D7D900B3E7E70094
:1037540013F77700630A070013F7F7009306400096
:103764006304D70093874700139757006344070205
:103774009397670093D79700130700006FF05FD803
:103784001307F00F930700006FF09FD71384050011
:103794006FF01FF413071000930700006FF05FD65B
:1037A40037078000130101FF1307F7FF93567501D4
:1037B40013D87501B377A70093F6F60F935EF5015E
:1037C4003376B70023229100232021011378F80FC8
:1037D40023261100232481001303F00F138E070006
:1037E4001389060093840E00139F370093D5F501C7
:1037F40013153600B38806416300681493C5150099
:10380400638CBE14635E100F631E0812630A0524E2
:103814009388F8FFB307AF40638808029307F00F5B
:103824006384F61C9307B00163C2173313070002C5
:10383400330717413317E500B35715013337E00059
:10384400B3E7E700B307FF4013975700635407201B
:10385400370400041304F4FF33F487001305040051
:10386400EF00C0541305B5FFB317A400634025232C
:10387400330525411304150013070002330787405D
:103884003397E7003337E000B3D78700B3E7E700A7
:103894001309000013F77700630A070013F7F70012
:1038A400930640006304D70093874700139757009B
:1038B4006356071A930619001307F00F93FE1400BA
:1038C4006380E61C9397670093D7970093F6F60FEF
:1038D400939797008320C1000324810013D5970098
:1038E400939676019397FE013365D50083244100B6
:1038F400032901003365F50013010101678000000D
:103904006392080C138716001377E70F631E0718DA
:10391400639A062A63000F28E30C05FAB307AF4045
:10392400139757006350072CB307E54113090000B0
:10393400938405006FF01FF6E30205EC638EBE0C62
:10394400E35010FD9307F00F6380F60AB7070004F5
:103954003365F5006FF01FED6350100D6300080A26
:103964009307F00F6382F608B70700043365F50088
:103974009307B00163C017271307000233071741E9
:103984003317E500B35715013337E000B3E7E70019
:10399400B387E70113975700635E070A13091900F9
:1039A4001307F00F630EE90CB706007E13D7170058
:1039B4009386F6FF93F717003377D700B367F700C2
:1039C4006FF05FED3307D8406392061463060F1A55
:1039D4001307F7FF630207229307F00F6310F8142D
:1039E40093840500130E0600630A0E08930E00006C
:1039F4009306F00FB70740006FF09FED63020506D2
:103A04009388F8FFB307AF00E38608F89307F00F35
:103A1400E390F6F66FF05FFD6398080A13891600C9
:103A24001377E90F6310071863900616630E0F1CD3
:103A3400E30005EAB307AF0013975700130900002A
:103A4400635A0700370700FC1307F7FFB3F7E700D3
:103A54001309100013F77700E31207E413DE3700AD
:103A64009307F00FE302F9F893179E0093D797009A
:103A74009376F90F93FE14006FF09FE593FE140004
:103A84009306F00F930700006FF09FE4370700FCE4
:103A94001307F7FFB3F7E70013F777003309A940DB
:103AA400E31E07DE6FF09FFB3304AF40931754000F
:103AB40063C40710E31404DA930E000093060000B5
:103AC400930700006FF0DFE03307D84063840608F3
:103AD4009307F00FE308F8F0B7070004336FFF0013
:103AE4009307B00163CCE71293070002B387E74062
:103AF400B317FF003357EF00B337F0003367F70015
:103B0400B307A700130908006FF0DFE89307F00F6D
:103B1400E308F8ECB7070004336FFF009307B00124
:103B240063CEE70A93070002B387E740B317FF00A9
:103B34003357EF00B337F000B367F700B307F5402E
:103B440013090800938405006FF01FD09307100039
:103B54006FF05FCF630E0F0A1307F7FFB307AF00D1
:103B640013090800E30807E29307F00FE31AF8F6D5
:103B7400130E06006FF05FE7130E0600130908002A
:103B8400938405006FF0DFEDE30E0FE4E30E05E42C
:103B94006FF0DFE5630C0504938E050093070600C0
:103BA4006FF01FD39307F00FE30CF9ECB307AF00EA
:103BB40093D717006FF01FEA3304E541938405009F
:103BC4006FF0DFC9E3140FFCE30205E29384050000
:103BD4006FF05FE1930710006FF09FDB9307100015
:103BE4006FF0DFF513090000E39607E6930E00007B
:103BF400930700006FF0DFCDB307E5411309080018
:103C0400938405006FF05FC4930706006FF05FCCE8
:103C1400130E0600130908006FF09FE41307100049
:103C24006FF01FEE13577501370680009307F6FFF8
:103C34001377F70F9305E007B3F6A7009357F50141
:103C44001305000063F6E500638607006780000043
:103C5400678000009307E0091305F0FFE3E8E7FE3F
:103C640093055009B3E7C60063D8E5001307A7F628
:103C74003395E70067800000130560093307E540CA
:103C840033D5E70067800000130101FF23261100EC
:103C940023248100630C050413040500EF000011C4
:103CA4009307E0093387A7409307600963C4E706D5
:103CB400930680009377F70F63D6A600130585FF5C
:103CC4003314A40013149400135494001314940094
:103CD400135594008320C100032481009397770136
:103CE4003365F5001301010167800000130400002F
:103CF40013149400135594008320C10003248100FD
:103D040093070000939777013365F50013010101D0
:103D1400678000009307900963D0E7029307B50119
:103D240093065000B317F400B386A640B337F000EF
:103D34003354D40033E487009307500063D6A700BC
:103D44009307B5FF3314F400B70600FC9386F6FF1F
:103D5400937774003376D400638407029377F40076
:103D640093054000638EB700130646009317560070
:103D740063D807009307F0093376D6003387A7404A
:103D840013146600135494001314940013559400F0
:103D94008320C100032481009377F70F9397770161
:103DA4003365F5001301010167800000B7070100C6
:103DB4006374F5049307F00F1307000263EEA70082
:103DC40097170000938707A4B387A70003C50700CC
:103DD4003305A7406780000013558500971700003E
:103DE400938747A2B387A70003C507001307800181
:103DF4003305A74067800000B70700016362F5023E
:103E040013558501971700009387C79FB387A700B1
:103E140003C50700130780003305A740678000002F
:103E240013550501971700009387C79DB387A70013
:103E340003C50700130700013305A740678000008E
:103E44001000000000000000017A5200017C010112
:103E54001B0D0200100000001800000018DBFFFF1B
:083E6400A004000000000000B2
:103E700080070000C00300002C00000017070000AE
:103E800017070000380400000500000024000000AF
:103E9000040000000100000080070000C0030000D3
:103EA0002C0000001707000017070000380400006E
:103EB00005000000240000000400000001000000D4
:103EC0005C4000F980070000C00300002C000000E7
:103ED00074020000A8020000380400000500000081
:103EE000240000000400000001000000704000F900
:103EF000000A0000000500002C0000004204000041
:103F000042040000A005000005000000240000009D
:103F10000400000001000000844000F9000A0000D5
:103F2000000500002C000000940000001A010000B1
:103F3000A0050000050000002400000004000000AF
:103F400001000000984000F9000F00008007000009
:103F50002C000000EA010000F401000070080000DD
:103F60000500000024000000040000000100000023
:103F7000AC4000F9000F0000800700002C0000009A
:103F8000C8000000C8000000700800000500000024
:103F9000240000000400000001000000C04000F9FF
:103FA0003C466C6F6174696E6720706F696E742037
:103FB0007072696E74696E67206E6F7420656E61D1
:103FC000626C652E20506C6561736520456E616280
:103FD0006C65206974206174206273702E6820669D
:103FE000697273742E2E2E3E000000003031323381
:103FF0003435363738396162636465660000000025
:10400000303132333435363738394142434445460E
:10401000000000006E6574776F726B20696E6974C2
:1040200069616C697A6174696F6E2073746172740E
:1040300065640D0A00000000726567202564207227
:104040006561646261636B3A20000000696E6974A7
:1040500069616C697A6564210D0A0000313932307A
:104060007831303830204020333046505300000043
:1040700031393230783130383020402036304650B7
:10408000530000003235363078313434302040204F
:1040900033304650530000003235363078313434F6
:1040A0003020402036304650530000003338343042
:1040B00078323136302040203234465053000000F0
:1040C0003338343078323136302040203330465067
:1040D00053000000417373657274206661696C75EA
:1040E00072650A000D0A2A2A2A20435241534820A9
:1040F00064756520746F2025733A2025642A2A2A66
:104100000D0A0000746172676574206578706F73C2
:104110007572652076616C75653A2025642C207275
:104120006564206761696E3A2025642C206772659A
:10413000656E206761696E3A2025642C20626C757B
:1041400065206761696E3A2025640D0A0000000051
:10415000636C61696D000000636175736500000048
:10416000706C696320696E697469616C697A6564F1
:104170000D0A0000496E7465727275707420696E64
:10418000697469616C697A65640D0A0043616D65E3
:10419000726120696E697469616C697A65640D0A7F
:1041A000000000002D2D2D2D2D2D2D2D2D2D2D2DF3
:1041B0002D2D2D2D2D2D2D2D2D2D2D2D2D2D2D0D4F
:1041C0000A00000043686F6F7365207265736F6C3F
:1041D0007574696F6E20616E64206672616D652012
:1041E000726174653A0D0A0025643A2000000000EF
:1041F00043686F6F736520706978656C20666F72B5
:104200006D61743A0D0A000025633A200000000039
:10421000202020207573696E672000000D0A0D0AAA
:1042200000000000756E65787065637465642072C7
:1042300065736F6C7574696F6E2026206672616D90
:104240006520726174650D0A00000000566964659E
:104250006F2053747265616D696E672064656D6F60
:104260002021000000010000360118003701000085
:10427000F0330200F13305006230000063301200B9
:1042800068300000693012006A3000006B30300086
:104290007630000077303000783000007930300020
:1042A000545E0C00446E0000B6B0010029E8000026
:1042B00001F0080003F008000DF010000FF01000EE
:1042C00031F0080033F008003DF010003FF010001E
:1042D00012010A0013010A00140101008E0B0100F3
:1042E0008F0B0000940B0100950B000000340100BF
:1042F0007834010079341C009130010092300000C4
:1043000019340000F1BC0200943001009530010026
:104310006233000063330000643300006533000043
:104320003801010042033D004303200040030A001E
:104330004103590044030000450300004603000008
:1043400047030000480311004903FF004A030A0025
:104350004B031F002002620022020100000900003E
:104360000109110002090A000032010001320100B6
:10437000D5320100D6320000DB320100DF3200000E
:104380000C3500000D350000080400000904000091
:104390000A0400000B0400000C0412000D040000CD
:1043A0000E040A000F0420004C0312004D0300000D
:1043B0004E030A004F03200001030500030302001F
:1043C000050302000603000007037C000B03020044
:1043D0000D03040010030100A03C0000A13C640098
:1043E000A43C0000A53C0000A63C0000A73C000047
:1043F000AA3C0000AB3C0000B83C0000B93C0800FF
:10440000BA3C0000BB3C0000BC3C0000BD3C3C0092
:10441000BE3C0000BF3C000002020A00030229006B
:10442000240201002502F400163101001731F400C6
:10443000040200000502000016020000170200003E
:1044400018020100190200000E0201000F02000014
:1044500018310000193100001A3101001B31000031
:104460001A3400001B3400001C3400001D3400000E
:104470001E3401001F342000203400002134D800F5
:1044800066330000673300006833000069330000C2
:1044900042031E004303900040030500410338001F
:1044A00044030000450300004603000047030000EA
:1044B000480311004903FF004A030A004B031F0091
:1044C000200262002202010000090100010922000D
:1044D000020908000032410001324100D5320000DB
:1044E000D6320000DB320100DF3200000C35000064
:1044F0000D35000008040000090400000A04000053
:104500000B0400000C0407000D0480000E040400DE
:104510000F0438004C0307004D0380004E030400D5
:104520004F033800010305000303020005030200E6
:104530000603000007037A000B0302000D030400CA
:1045400010030100A03C0000A13C3C00A43C000082
:10455000A53C3C00A63C0000A73C0000AA3C000093
:10456000AB3C0000B83C0000B93C1C00BA3C000069
:10457000BB3C0800BC3C0000BD3C1E00BE3C000033
:10458000BF3C0A00020205000302080024020100E9
:104590002502F400163101001731F4000402000076
:1045A00005027000160200001702700018020100D8
:1045B000190200000E0201000F0200001831000075
:1045C000193170001A3101001B3100001A3400004B
:1045D0001B3400001C3400001D3400001E34000099
:1045E0001F3490002034000021346C00663300003A
:1045F0006733000068330000693300004203210084
:104600004303F60040030A0041035900440300003D
:104610004503000046030000470300004803110063
:104620004903FF004A030A004B031F0020026200F7
:1046300022020100000900000109110002090A001C
:104640000032010001320100D5320100D6320000F3
:10465000DB320100DF3200000C3500000D350000B8
:1046600008040000090400000A0400000B04000014
:104670000C040A000D0400000E0405000F04A00045
:104680004C030A004D0300004E0305004F03A00039
:1046900001030500030302000503020006030000F6
:1046A00007037C000B0302000D030400100301004C
:1046B000A03C0000A13C6400A43C0000A53C00001C
:1046C000A63C0000A73C0000AA3C0000AB3C000058
:1046D000B83C0000B93C0800BA3C0000BB3C0000FC
:1046E000BC3C0000BD3C2200BE3C0000BF3C0000C2
:1046F0000202050003029700240201002502F400D3
:10470000163101001731F400040200000502000018
:104710001602000017020000180201001902000032
:104720000E0201000F0200001831000019310000D4
:104730001A3101001B3100001A3400001B34000044
:104740001C3400001D3400001E3400001F34A00083
:104750002034000021347800663300006733000005
:104760006833000069330000757365722074696DE9
:10477000657220696E697469616C697A6564210D7E
:104780000A000000F4E1FFFF78E0FFFF78E0FFFFA0
:1047900074E0FFFF84E0FFFF84E0FFFF18E0FFFF0D
:1047A00074E0FFFF84E0FFFF18E0FFFF84E0FFFFFD
:1047B00074E0FFFFD4E1FFFFD4E1FFFFD4E1FFFF8E
:1047C00018E0FFFF84EEFFFF84EDFFFF84EDFFFFA5
:1047D00080EDFFFF8CEDFFFF8CEDFFFF34EDFFFF61
:1047E00080EDFFFF8CEDFFFF34EDFFFF8CEDFFFF51
:1047F00080EDFFFF68EEFFFF68EEFFFF68EEFFFF52
:1048000034EDFFFF00010202030303030404040468
:10481000040404040505050505050505050505054C
:10482000050505050606060606060606060606062C
:104830000606060606060606060606060606060618
:1048400006060606070707070707070707070707FC
:1048500007070707070707070707070707070707E8
:1048600007070707070707070707070707070707D8
:1048700007070707070707070707070707070707C8
:1048800007070707080808080808080808080808AC
:104890000808080808080808080808080808080898
:1048A0000808080808080808080808080808080888
:1048B0000808080808080808080808080808080878
:1048C0000808080808080808080808080808080868
:1048D0000808080808080808080808080808080858
:1048E0000808080808080808080808080808080848
:1048F0000808080808080808080808080808080838
:104900000808080833322D62697420415247423842
:10491000383838000000000032342D6269742052AB
:1049200047423838380000000000000031362D6260
:1049300069742052474235363500000000000000FF
:104940000A00000000000000000000000000F83F26
:104950000000000000C0824000007A4400007A4558
:104960000000C03F0000803F000000000000000089
:02497000000045
:04000005F9000000FE
:00000001FF
