:02000004F90001
:10000000975100009381815C17610000130181E525
:10001000174500001305052897450000938585279F
:1000200017560000130646DF63FCC5008322050057
:1000300023A055001305450093854500E3E8C5FE60
:1000400017550000130545DD97550000938505E120
:100050006378B5002320050013054500E36CB5FE69
:10006000EF000001EF00000A6F0000006780000051
:10007000130101FF23248100232021019747000061
:1000800093874721174400001304C420232611003E
:1000900023229100338987406380870213592940C6
:1000A0009304000083270400938414001304440085
:1000B000E7800700E3E824FF974700009387871D48
:1000C000174400001304041D338987401359294045
:1000D000638E870093040000832704009384140038
:1000E00013044400E7800700E3E824FF8320C100F5
:1000F000032481008324410003290100130101012D
:1001000067800000130101FF23261100EF00504F0C
:10011000374500F91305C55DEF00D05CEF10C02036
:100120003706B0F8B7E5F5059385051037450F009C
:1001300013050524EF009026EF10C0266F00800005
:10014000EF108034370501F8EF00901AE31A05FE2E
:100150003706B0F8B7E5F50593850510372500009B
:1001600013050571EF0090236FF0DFFD03254500B7
:10017000135505011375F50F67800000130101FF8A
:10018000232611002324810023229100130405005B
:100190009384050013050400EFF05FFDE30C05FEFA
:1001A000232094008320C100032481008324410084
:1001B0001301010167800000B7470F0093870724F0
:1001C000B3D5F502B7C70000938787FF3306F60063
:1001D00083270600B385A5023387F5008327060031
:1001E000B307F740E3DC07FE67800000130101FF5F
:1001F0002326110093050500370501F8EFF01FF8DD
:100200008320C1001301010167800000130101FF79
:100210002326110023248100130405006F00C00071
:1002200013041400EFF09FFC03450400E31A05FEDD
:100230008320C100032481001301010167800000B5
:10024000130101FF232611002324810023229100A2
:10025000930405001304C0016F00400233D78400EB
:100260001377F700B74700F993870729B387E700AB
:1002700003C50700EFF09FF71304C4FFE35004FE2B
:100280008320C10003248100832441001301010164
:1002900067800000130101FF232611002324810041
:1002A00023229100930405001304C0016F00400253
:1002B00033D784001377F700B74700F99387472AAD
:1002C000B387E70003C50700EFF05FF21304C4FF34
:1002D000E35004FE8320C1000324810083244100F5
:1002E0001301010167800000130101FF23261100A3
:1002F0001375F50FEFF09FEF8320C100130101018B
:1003000067800000130101FF23261100EFF01FF0AA
:100310008320C1001301010167800000130101FD6A
:100320002326110223248102232291029304050033
:1003300063460500130401006F00C0021305D002DC
:10034000EFF09FFAB30490406FF0DFFE1307A000B8
:10035000B3E7E402938707032300F400B3C4E40285
:1003600013041400E39404FE93070100E300F4FE79
:1003700093070100630AF4001304F4FF034504002B
:10038000EFF09FF66FF0DFFE8320C10203248102AD
:10039000832441021301010367800000130101FF60
:1003A00023261100130700009307700063C0E702C3
:1003B00093162700930700FFB397D700B377F50094
:1003C00063860700130717006FF01FFEEFF09FEC26
:1003D0008320C1001301010167800000130101FFA8
:1003E00023261100130700009307700063C0E70283
:1003F00093162700930700FFB397D700B377F50054
:1004000063860700130717006FF01FFEEFF05FE32E
:100410008320C1001301010167800000130101FC6A
:10042000232E1100232C8100232A91009304050020
:100430002322B1022324C1022326D1022328E10270
:10044000232AF102232C0103232E110393074102D7
:100450002326F100130400006F00C0018327C100B0
:10046000138747002326E10003A50700EFF0DFE72D
:1004700013041400B387840003C50700630E050A44
:1004800093075002630EF506EFF01FE66FF05FFE74
:100490008327C100138747002326E10003A5070037
:1004A000EFF05FE66FF0DFFC8327C10013874700A2
:1004B0002326E10003A50700EFF05FE66FF05FFB86
:1004C0008327C100138747002326E10003A5070007
:1004D000EFF0DFF06FF0DFF98327C10013874700EB
:1004E0002326E10003A50700EFF05FEB6FF05FF854
:1004F000374500F91305852BEFF0DFE06FF05FF76C
:1005000013041400B387840083C70700E38207F64F
:10051000938787FA93F6F70F13070002E362D7FE7B
:1005200093972600374700F913070761B387E70061
:1005300083A70700678007008320C101032481018E
:10054000832441011301010467800000B70710F8FC
:100550003305F5000325050067800000B70710F894
:10056000B385F50023A0A5006780000003270500E0
:10057000B70710F823A2E70203278500B70710F892
:1005800023A4E7020327C500B70710F823A6E70254
:1005900003274500B70710F823A8E7020327050142
:1005A000B70710F823AAE70203278501B70710F859
:1005B00023ACE7020327C501B70710F823AEE70213
:1005C00003274501B70710F823A0E7040327050216
:1005D000B70710F823A2E70403274502B70710F86E
:1005E00023A4E70467800000130101FB2326110404
:1005F000232481042322910423202105232E310367
:10060000232C4103232A51033704FFFF1304F40F63
:1006100013794401B7660000938606403369D90018
:10062000370701FF1307F7FF3379E900B70510001B
:100630003369B900B70700019387F7FF3379F900F1
:10064000370600AC3369C9009374A400B3E4D40046
:10065000B3F4E400B3E4B400B3F4F400B3E4C400CE
:10066000B70720F823A40700B70910F823A0090250
:10067000370A10F823260A04930A100023A457010E
:100680003706B0F8B7E5F5059385051037450F0037
:1006900013050524EFF05FB2374500F91305453027
:1006A000EFF0DFD7B70710F823A82705B70710F832
:1006B00023AA9704B70710F823AC9704B70710F8DC
:1006C0001307204D23AEE704B70710F81307304D8A
:1006D00023A0E706B70710F81307004623AAE7068A
:1006E000B74700F99387C77903AE070003A3470014
:1006F00083A8870003A8C70003A5070183A54701B6
:1007000003A6870183A6C70103A7070283A74702A1
:100710002320C1012322610023241101232601018A
:100720002328A100232AB100232CC100232ED100AD
:100730002320E1022322F10213050100EFF01FE361
:1007400023265A0523A05903130400006F00C00399
:1007500093172400370710F8B387E70083A4070036
:1007600093050400374500F913058532EFF01FCBE0
:1007700013850400EFF09FC2374500F91305C53318
:10078000EFF0DFC91304140093078001E3D287FC64
:10079000374500F913050534EFF05FC83706B0F8A8
:1007A000B7E5F5059385051037C500001305053538
:1007B000EFF09FA08320C10403248104832441041B
:1007C000032901048329C103032A8103832A4103E6
:1007D000130101056780000003254500135505013D
:1007E0001375F50F67800000130101FF2326110028
:1007F0002324810023229100130405009384050023
:1008000013050400EFF05FFDE30C05FE23209400C8
:100810008320C100032481008324410013010101CE
:1008200067800000130101FF2326110023248100AB
:100830002322910093040500138405006F0000013A
:100840001304140013850400EFF01FFA834504001D
:10085000E39805FE8320C100032481008324410026
:100860001301010167800000630405006780000038
:10087000130101FF23261100B74500F99385853C3C
:10088000370501F8EFF01FFA6F000000130101FFB8
:1008900023261100232481002322910023202101FB
:1008A000930405001384050013090600EF2050612E
:1008B000634C05009305090013850400EF20D05315
:1008C0006352A00213040900130504008320C10031
:1008D0000324810083244100032901001301010145
:1008E00067800000138404006FF01FFE130101FEF7
:1008F000232E1100232C8100232A9100232821017B
:100900002326310123244101130405008324C5005B
:1009100013850500EF30C07D9305050013850400A5
:10092000EF300025930405002328A4008329C40187
:100930000329440193050900EF3080239305050046
:1009400013850900EF20D064930905008325040274
:1009500013850400EF20D06393050500138509007B
:10096000EF20007C93090500032A44029305090047
:1009700013050900EF20C07A9305050013850400D4
:10098000EF30001F83258401EF2080799305050057
:1009900013050A00EF20D05F9305050013850900B9
:1009A000EF20007803260400B7090080B3C5C90012
:1009B000EFF0DFED9305050003258400EF2040767E
:1009C0002324A40003264400B3C5C900EFF01FECA4
:1009D0002324A400232C2401232A9400EF30406B0D
:1009E0008320C101032481018324410103290101E2
:1009F0008329C100032A81001301010267800000DE
:100A0000B70710F823A4A700B70710F823A6B7006C
:100A1000B70710F823A8C70067800000B70710F8D1
:100A200003A507009387470083A707003355F50206
:100A300067800000130101FF23261100EFF01FFE65
:100A40009305050013858186EFF05FEA8320C100DE
:100A50001301010167800000130101FF232611002B
:100A600023248100EF30C068138481862326A400EC
:100A70008320C1000324810013010101678000006D
:100A8000130101FF2326110023248100232291005A
:100A9000138481869304000023249400EF30406582
:100AA0002326A40083A781822320F40083A7C18288
:100AB0002322F400232C940083A70183232EF40027
:100AC00083A741832320F402232294028320C100C0
:100AD0000324810083244100130101016780000089
:100AE00003254500135505011375F50F67800000B8
:100AF000032545001355850167800000130101FFA0
:100B000023261100232481002322910013040500D1
:100B10009384050013050400EFF09FFCE30C05FE31
:100B2000232094008320C1000324810083244100FA
:100B30001301010167800000130101FF232611004A
:100B4000232481001304050013050400EFF05FFA6D
:100B5000E30C05FE032504001375F50F8320C10087
:100B600003248100130101016780000083A7C500F1
:100B70002324F50083A705009387F7FF03A745000B
:100B800013178700B3E7E70003A7850013170701D2
:100B9000B3E7E7002326F50067800000B7470F00A2
:100BA00093870724B3D5F502B7C70000938787FF63
:100BB0003306F60083270600B385A5023387F500C8
:100BC00083270600B307F740E3DC07FE67800000D9
:100BD000130101FF2326110093050500370501F8D5
:100BE000EFF0DFF18320C1001301010167800000F5
:100BF000130101FF232611002324810013040500A3
:100C00006F00C00013041400EFF09FFC03450400C4
:100C1000E31A05FE8320C1000324810013010101B2
:100C200067800000130101FF2326110023248100A7
:100C300023229100930405001304C0016F004002B9
:100C400033D784001377F700B74700F99387072954
:100C5000B387E70003C50700EFF09FF71304C4FF55
:100C6000E35004FE8320C10003248100832441005B
:100C70001301010167800000130101FF2326110009
:100C80002324810023229100930405001304C00152
:100C90006F00400233D784001377F700B74700F99D
:100CA0009387472AB387E70003C50700EFF05FF299
:100CB0001304C4FFE35004FE8320C1000324810019
:100CC000832441001301010167800000130101FF2B
:100CD000232611001375F50FEFF09FEF8320C1005D
:100CE0001301010167800000130101FF2326110099
:100CF000EFF01FF08320C1001301010167800000A5
:100D0000130101FD232611022324810223229102D3
:100D10009304050063460500130401006F00C00240
:100D20001305D002EFF09FFAB30490406FF0DFFE9E
:100D30001307A000B3E7E402938707032300F4003E
:100D4000B3C4E40213041400E39404FE9307010007
:100D5000E300F4FE93070100630AF4001304F4FFB8
:100D600003450400EFF09FF66FF0DFFE8320C10221
:100D700003248102832441021301010367800000E0
:100D8000130101FF232611001307000093077000D1
:100D900063C0E70293162700930700FFB397D700BD
:100DA000B377F50063860700130717006FF01FFE87
:100DB000EFF09FEC8320C100130101016780000068
:100DC000130101FF23261100130700009307700091
:100DD00063C0E70293162700930700FFB397D7007D
:100DE000B377F50063860700130717006FF01FFE47
:100DF000EFF05FE38320C100130101016780000071
:100E0000130101FE232E1100930780002320F1001F
:100E100023220100232401009307B0062326F100BA
:100E200093050100370501F8EFF05FD48320C1017D
:100E3000130101026780000093952500B385A5008A
:100E400023A0C5006780000093957500B385A500B9
:100E50009357560093972700B387F5003727000074
:100E6000B387E700130710003316C700638A060034
:100E700003A707003366E60023A0C70067800000D1
:100E800003A707001346F6FF3376E60023A0C7004A
:100E9000678000009395C500B385A500B7072000C3
:100EA000B385F50023A0C500678000009395C500B9
:100EB000B385A500B707200093874700B385F500E9
:100EC00003A50500678000009395C500B385A500C4
:100ED000B707200093874700B385F50023A0C5001E
:100EE00067800000130101FC232E1100232C8100D8
:100EF000232A9100930405002322B1022324C10276
:100F00002326D1022328E102232AF102232C010304
:100F1000232E1103930741022326F100130400003E
:100F20006F00C0018327C100138747002326E1001B
:100F300003A50700EFF09FD913041400B3878400C2
:100F400003C50700630E050A93075002630EF506FA
:100F5000EFF0DFD76FF05FFE8327C10013874700F4
:100F60002326E10003A50700EFF01FD86FF0DFFC98
:100F70008327C100138747002326E10003A507004C
:100F8000EFF01FD86FF05FFB8327C1001387470086
:100F90002326E10003A50700EFF09FE26FF0DFF9E1
:100FA0008327C100138747002326E10003A507001C
:100FB000EFF01FDD6FF05FF8374500F91305852B63
:100FC000EFF09FD26FF05FF713041400B387840033
:100FD00083C70700E38207F6938787FA93F6F70F34
:100FE00013070002E362D7FE93972600374700F904
:100FF0001307477CB387E70083A7070067800700D4
:101000008320C101032481018324410113010104D0
:1010100067800000130101FF2326110013860500DD
:1010200093050500374500F91305853DEFF09FEB6B
:101030006F000000130101FF23261100232481000B
:10104000232291002320210113054006EFF00FD049
:101050001309050013058006EFF04FCF13040500B8
:101060001305C006EFF08FCE9304050013050007AB
:10107000EFF0CFCD83A741866396270183A7018632
:10108000638C870823A2218723A0818623AE9184C5
:1010900023ACA1841304441293840408130505F8B7
:1010A000EF10907C03A6818183A6C181EF1010060A
:1010B00003A6018283A64182EF00D078EF109072E0
:1010C000130605001305040063420406938504001B
:1010D00063C2040663440606EFF09F9213050900FD
:1010E000EFF09F9703A7818583A6C18503A601869C
:1010F00083A54186374500F91305853FEFF09FDE54
:101100008320C100032481008324410003290100BE
:10111000130101016780000083A7C185E39497F65E
:1011200083A78185E390A7F66FF09FFD130500006C
:101130006FF0DFF9930500006FF0DFF91306000090
:101140006FF09FF9130101FF232611002324810072
:1011500003D54185EFF01F8E13040500EFF01F8CBF
:101160009305050083A701859387170023A8F184C1
:10117000130790006360F70283D74185B3878740E8
:1011800013D7F741B347F700B387E7401307A00031
:10119000635EF7009306040003D64185374500F9E6
:1011A00013054544EFF01FD423A801841314040150
:1011B00013540401930504001305C021EF00406C93
:1011C000239A8184EFF01FE78320C100032481006C
:1011D0001301010167800000130101FF23261100A4
:1011E00023248100930500003705C0F8EFF01FCCE1
:1011F00013040500630A050293073001631EF4001F
:10120000EFF05FF413060400930500003705C0F803
:10121000EFF09FCB6FF01FFD93050400374500F9F9
:1012200013054547EFF01FDF8320C1000324810031
:101230001301010167800000130101FF2326110043
:10124000F327203493F5F70063D407029307B00027
:10125000639AF500EFF05FF88320C10013010101EC
:1012600067800000374500F91305C547EFF09FDAA6
:10127000374500F91305C547EFF0DFD9130101FF2A
:101280002326110013060500938605009305000030
:101290003705C0F8EFF05FBB8320C10013010101E7
:1012A00067800000130101FF2326110013060000D0
:1012B000930500003705C0F8EFF0DFBD930610007E
:1012C00013063001930500003705C0F8EFF0DFB7D3
:1012D00013062000930530013705C0F8EFF0DFB5A5
:1012E000374500F913054548EFF0DFBFB72700F990
:1012F000938747FB73905730B71700009387078099
:1013000073A04730B78700009387878073900730BA
:10131000374500F913058549EFF0DFBC8320C10094
:101320001301010167800000130101FF2326110052
:10133000374500F91305054BEFF0DFBAEFF0CFAA00
:10134000374500F91305454CEFF0DFB9374500F993
:101350001305454DEFF01FB9EF000034374500F994
:101360001305C54EEFF01FB813051000EF00C05273
:10137000374500F913050550EFF0DFB613050000FF
:10138000EFF00FF0379598001305056893050000FE
:10139000EF005036EFF01FF18320C100130101016F
:1013A00067800000130101FF232611002324810020
:1013B000374500F913058551EFF0DFB2374500F9E5
:1013C00013058553EFF01FB2130400006F000004F3
:1013D00093050400374500F91305C555EFF09FB09C
:1013E000B74700F91307C0023307E4029387476940
:1013F000B387E70003A58702EFF0DFAE374500F9BA
:101400001305C533EFF01FAE13041400930750000B
:10141000E3F087FC374500F91305C533EFF09FACC7
:10142000374500F913054556EFF0DFAB1304000014
:101430009307200063E2870493051406374500F9FB
:101440001305C557EFF01FAA93172400B387870031
:1014500013952700B75700F99387C7D93385A7009D
:10146000EFF09F88374500F91305C533EFF09FA7CC
:10147000130414006FF0DFFB8320C10003248100FC
:101480001301010167800000130101FC232E1102EA
:10149000370501F8EFF04FEA2386A184130505FD17
:1014A00023A8A1809307500063F2A70283C7C184D9
:1014B0009387F7F923A8F18013072000637EF712C2
:1014C0008320C1031301010467800000232C8102E3
:1014D000232A910223282103374500F91305455893
:1014E000EFF05FA003A70181B74700F913844769B4
:1014F0001309C002B3072703B307F40003A587024B
:10150000EFF05F9E374500F913050559EFF09F9DF9
:101510009305000013053001EFF05FD683A701812A
:10152000B3872703B307F40003AE070003A3470004
:1015300083A8870003A8C70003A5070183A5470167
:1015400003A6870183A6C70103A7070283A7470253
:101550002320C1012322610023241101232601013C
:101560002328A100232AB100232CC100232ED1005F
:101570002320E1022322F10213050100EFE01FFF07
:1015800083A7018113073000634EF7021307200081
:1015900063D6E704130710006368F704130510000F
:1015A000EF00802F9305100013053001EFF01FCDE1
:1015B000EFF05FDF03248103832441030329010348
:1015C0006FF0DFEE9387C7FF13071000636EF7001D
:1015D00013050000EF00402C6FF0DFFC1305200026
:1015E000EF00802B6FF01FFC374500F9130585597C
:1015F000EFF05F8F6FF01FFB232C8102374500F95E
:1016000013054558EFF01F8E03A70181931727009C
:10161000B387E70093972700375500F91305C5D91D
:101620003305F500EFF01F8C374500F91305055918
:10163000EFF05F8B03A501819307200063ECA70007
:101640009305C007EFE09FF1EFF0DFD5032481039E
:101650006FF01FE7374500F91305055CEFF09F8831
:101660006FF09FFE83A705002324F50283A74500A2
:101670002326F50283A785002328F50283A7C5004A
:101680002328F50483A70501232AF50483A7450130
:10169000232CF50467800000130101FD23261102AD
:1016A000930730002324F100B78701009387076A6E
:1016B0002326F1009307800C2328F1009307401F95
:1016C000232AF100232CF1009307803E232EF10002
:1016D00093058100376501F8EFF0DFF88320C10240
:1016E000130101036780000003250504137515002D
:1016F0006780000013070504930700212320F504E9
:101700008327070093F70701E39C07FE678000002B
:10171000130101FF23261100232481001304050077
:1017200013050400EFF05FFCE31C05FE8320C100FD
:10173000032481001301010167800000130101FFF0
:1017400023261100130700422320E504EFF05FFC7D
:101750008320C10013010101678000008327450039
:1017600093F70710E39C07FE67800000130101FF59
:1017700023261100130710302322E500EFF01FFE8F
:101780008320C10013010101678000000325C5000B
:101790001375F50F1335150067800000130101FE66
:1017A000232E1100232C8100232A910023282101BC
:1017B00023263101232441011304050093840500ED
:1017C00093090600376501F8EFF0DFF213141400F7
:1017D0001374F40F37190000130909B0336424019E
:1017E000376A01F823208A00376501F8EFF01FF807
:1017F000376501F8EFF09FF9EFF00F8793D784007A
:10180000B3E727012320FA00376501F8EFF01FF650
:10181000376501F8EFF09FF7EFF00F8593F4F40FC1
:10182000B3E4240123209A00376501F8EFF01FF498
:10183000376501F8EFF09FF5EFF00F83B3E9290169
:1018400023203A01376501F8EFF05FF2376501F8C0
:10185000EFF0DFF3EFF04F81376501F8EFF01FEEA7
:101860008320C10103248101832441010329010153
:101870008329C100032A810013010102678000004F
:10188000130101FF23261100EF0040258320C10032
:101890001301010167800000130101FF23261100DD
:1018A000EF0040048320C1001301010167800000A4
:1018B000B7470F0093870724B3D5F502B7C70000D9
:1018C000938787FF3306F60083270600B385A502BA
:1018D0003387F50083270600B307F740E3DC07FEF4
:1018E00067800000130101FF2326110023248100DB
:1018F0002322910093040500130400006F0080026E
:10190000B75700F913172400938707C0B387E70080
:1019100003C6270083D5070013050001EFF01FE879
:101920001304140093075000E3FC87FC3706B0F85B
:10193000B7E5F5059385051037450F001305052418
:10194000EFF01FF7130400006F008002B75700F993
:1019500013172400938707BCB387E70003C627004B
:1019600083D507001305A001EFF05FE31304140013
:101970009307F000E3FC87FC130400006F00800273
:10198000B75700F913172400938787B9B387E70087
:1019900003C6270083D507001305A001EFF01FE061
:1019A0001304140093079000E3FC87FC3706B0F89B
:1019B000B7E5F5059385051037250000130505717A
:1019C000EFF01FEF93071000638AF40C93072000D9
:1019D0006382F410638604048320C1000324810021
:1019E000832441001301010167800000B75700F90B
:1019F000131724009387479BB387E70003C627008C
:101A000083D507001305A001EFF05FD9130414007C
:101A10009307A005E3FC87FC130400006F00C002DD
:101A2000130400006FF0DFFE1317240093878183F7
:101A3000B387E70003C6270083D507001305A0017D
:101A4000EFF0DFD51304140093071000E3FE87FCCA
:101A50006FF09FF8B75700F913172400938707B268
:101A6000B387E70003C6270083D507001305A0014D
:101A7000EFF0DFD2130414009307D001E3FC87FCDE
:101A80003706B0F8B7E5F5059385051037450F0023
:101A900013050524EFF0DFE16FF01FF413040000DD
:101AA0006FF09FFDB75700F91317240093878784C1
:101AB000B387E70003C6270083D507001305A001FD
:101AC000EFF0DFCD130414009307A005E3FC87FCBF
:101AD0006FF09FF0130400006FF01FFF130101FF70
:101AE00023261100232481002322910013040500E2
:101AF0009384050013D685009305E0201305A0010B
:101B0000EFF0DFC913F6F40F9305F0201305A001E1
:101B1000EFF0DFC813568400930540201305A001A1
:101B2000EFF0DFC71376F40F930550201305A001E3
:101B3000EFF0DFC68320C10003248100832441002D
:101B400013010101678000000325450013550501BD
:101B50001375F50F67800000130101FF23261100A4
:101B6000232481002322910013040500938405009F
:101B700013050400EFF05FFDE30C05FE2320940045
:101B80008320C1000324810083244100130101014B
:101B900067800000130101FF232611009305050053
:101BA000370501F8EFF05FFB8320C100130101014D
:101BB00067800000130101FF232611002324810008
:101BC000130405006F00C00013041400EFF09FFC25
:101BD00003450400E31A05FE8320C10003248100AD
:101BE0001301010167800000130101FF232611008A
:101BF0002324810023229100930405001304C001D3
:101C00006F00400233D784001377F700B74700F91D
:101C100093870729B387E70003C50700EFF09FF715
:101C20001304C4FFE35004FE8320C1000324810099
:101C3000832441001301010167800000130101FFAB
:101C40002326110023248100232291009304050000
:101C50001304C0016F00400233D784001377F700EC
:101C6000B74700F99387472AB387E70003C5070002
:101C7000EFF05FF21304C4FFE35004FE8320C100C1
:101C800003248100832441001301010167800000C7
:101C9000130101FF232611001375F50FEFF09FEFDD
:101CA0008320C1001301010167800000130101FFBF
:101CB00023261100EFF01FF08320C1001301010162
:101CC00067800000130101FD2326110223248102F5
:101CD00023229102930405006346050013040100CA
:101CE0006F00C0021305D002EFF09FFAB3049040DA
:101CF0006FF0DFFE1307A000B3E7E402938707034A
:101D00002300F400B3C4E40213041400E39404FEBB
:101D100093070100E300F4FE93070100630AF40057
:101D20001304F4FF03450400EFF09FF66FF0DFFEAD
:101D30008320C10203248102832441021301010391
:101D400067800000130101FF232611001307000024
:101D50009307700063C0E70293162700930700FF04
:101D6000B397D700B377F500638607001307170012
:101D70006FF01FFEEFF09FEC8320C1001301010103
:101D800067800000130101FF2326110013070000E4
:101D90009307700063C0E70293162700930700FFC4
:101DA000B397D700B377F5006386070013071700D2
:101DB0006FF01FFEEFF05FE38320C100130101010C
:101DC00067800000130101FC232E1100232C8100E9
:101DD000232A9100930405002322B1022324C10287
:101DE0002326D1022328E102232AF102232C010316
:101DF000232E1103930741022326F1001304000050
:101E00006F00C0018327C100138747002326E1002C
:101E100003A50700EFF0DFE713041400B387840085
:101E200003C50700630E050A93075002630EF5060B
:101E3000EFF01FE66FF05FFE8327C10013874700B6
:101E40002326E10003A50700EFF05FE66FF0DFFC5B
:101E50008327C100138747002326E10003A507005D
:101E6000EFF05FE66FF05FFB8327C1001387470049
:101E70002326E10003A50700EFF0DFF06FF0DFF9A4
:101E80008327C100138747002326E10003A507002D
:101E9000EFF05FEB6FF05FF8374500F91305852B26
:101EA000EFF0DFE06FF05FF713041400B3878400F6
:101EB00083C70700E38207F6938787FA93F6F70F45
:101EC00013070002E362D7FE93972600375700F905
:101ED000130787C1B387E70083A707006780070060
:101EE0008320C101032481018324410113010104E2
:101EF00067800000130101FF23261100B77701F866
:101F00001307300623A0E700370701001307270057
:101F100023A0E704B70710009387F7FF3377F50096
:101F20001396C50093564501B366D600B3F6F60086
:101F30003307D70093D68500B3F7F6003307F700D1
:101F400093D7C5013307F700930790013377F70262
:101F50003307E5403335E500B387A54037668FC2C8
:101F6000130696C2B387C702B7365C8F9386568F27
:101F7000B306D702B387D700B306C7023337C70209
:101F8000B387E7009397E70113D7260033E7E7000D
:101F90001307F7FFB77701F823A2E704374500F9E5
:101FA0001305455FEFF01FE28320C100130101011B
:101FB00067800000130101FC23201100232251003F
:101FC00023246100232671002328A100232AB100C5
:101FD000232CC100232ED1002320E1022322F10271
:101FE00023240103232611032328C103232AD10319
:101FF000232CE103232EF103EFF00FA48320010033
:1020000083224100032381008323C10003250101B2
:1020100083254101032681018326C1010327010293
:1020200083274102032881028328C102032E010372
:10203000832E4103032F8103832FC1031301010466
:1020400073002030B7071000130101FE938EF7FFD5
:1020500033F8BE00B3F7DE0013D346012328210175
:1020600013D9450193973700232C810013183800AA
:1020700013D4F5011357D5019358D6011379F97F7D
:102080001373F37F232E1100232A9100232631019D
:1020900093D6F601B3E8F8003367070193153500CE
:1020A000131F3600B30769406304D41E6352F01651
:1020B000630603289306F07F6306D94293068003E4
:1020C0001306100063CEF602B7068000B3E8D8000E
:1020D0009306F00163CEF65293060002B386F640F3
:1020E0003396D8003355FF00B316DF003366A600E1
:1020F000B336D000B3D8F8003366D60033071741A3
:102100003386C540B3B5C50093040600B309B74094
:102110009397890063DA0732B70780009387F7FF48
:10212000B3F9F9006388092C13850900EF20C00D6D
:10213000930785FF930600023387F64033D7E40008
:10214000B399F90033673701B394F40063C8274BA0
:10215000B387274193871700B386F6403396D400A0
:10216000B3D9F4003336C00033663601B316D70056
:10217000B3E4C600B359F7001309000093F77400E5
:102180006380070293F7F40013074000638AE700B7
:102190009387440033B69700B389C900938407003E
:1021A0009397890063DA076E930719001307F07F8E
:1021B000130E04006386E72A370780FF1307F7FF33
:1021C00033F7E90093F7F77F1318D70113D63400DC
:1021D000131797003368C8001357C7008320C10145
:1021E0000324810193974701B3E7E7001317FE012A
:1021F000B3E7E70083244101032901018329C100DA
:102200001305080093850700130101026780000091
:10221000638C0714B30723416312093C3365B7008D
:102220006304054C1385F7FF630205601308F07F14
:1022300063860757930780031306100063CCA70239
:10224000930705001306F001634CF65613050002D0
:102250003305F5403316A70033D8F5003395A500B4
:10226000336606013335A0003357F7003366A60006
:10227000B388E8403306CF403337CF0093040600DD
:10228000B389E84013090300138406006FF05FE888
:102290006350F01E63100314B3E6E801638C062656
:1022A0009386F7FF638006481306F07F638CC7228E
:1022B000930780039309100063CCD702938706002D
:1022C0009306F00163C0F64A93060002B386F64017
:1022D000B399D8003356FF00B316DF00B3E9C90045
:1022E000B336D000B3D8F800B3E9D90033071701EB
:1022F000B385B900B3B9350193840500B389E9000A
:102300009397890063D20714130919009307F07F8C
:10231000630CF936B70780FF9387F7FF13F61400B5
:10232000B3F7F90013D714003367C7001396F7010A
:10233000B364E60093D917006FF05FE4B3E6E801F9
:10234000638A061C9386F7FF638006401306F07FBE
:10235000638AC7189307800313061000E3C2D7DA15
:10236000938706006FF0DFD6130819001378E87F13
:10237000631C08223363B70033E8E80163100938AF
:10238000630E034663060840B389E54133B5350162
:10239000330617413306A64013158600635E0550C9
:1023A000B305BF403387E840333FBF003307E74101
:1023B0001316870093840500635E0652B70780FFFB
:1023C0009387F7FF3377F700138E0600930710000B
:1023D0006FF09FDF9306F07F6306D91093068003AA
:1023E00093091000E3C6F6F0B7068000B3E8D80002
:1023F0006FF01FED13850400EF1010619307850146
:102400009306F001E3D8F6D2130785FF3397E40073
:1024100063C62723338927419307190063D6F648FB
:10242000130919FE93060002B3542701638CD700E9
:1024300093060004B387F6403317F7003337E00004
:10244000B3E4E4001309000093F77400E39C07D29F
:102450009307090013D63400138709006F00000C9E
:102460009307F07F13070000130800006FF01FD7D9
:10247000638A070CB30723416302091E9306F07FAA
:102480006308D332930680039309100063CEF602EB
:10249000B70680003367D7009306F00163C8F63CA7
:1024A00093060002B386F640B319D70033D6F50081
:1024B000B396D500B3E9C900B336D0003357F7005F
:1024C000B3E9D900B388E8003387E901B3393701AC
:1024D00093040700B3891901130903006FF05FE249
:1024E0006310080213163500135636001318D7016F
:1024F0003368C800135737003367070163060718AE
:10250000130E00009307F07F370708001308000040
:102510006FF0DFCC13163500135636001318D701B1
:102520009306F07F3368C80013573700E386D7FC63
:102530001317C7001357C70093F7F77F130E040054
:102540006FF0DFC99306190013F8E67F63180814CB
:10255000B366B700631C092863820630B3E6E8015E
:1025600063880622B387E501B3B5B70033071701C7
:102570003307B70013D8370093178700130E0400F2
:1025800063DE0734B70780FF9387F7FF3377F700E1
:102590009317D7011357370033E807013377D70173
:1025A000930710006FF09FC33388E541B3B705016F
:1025B000B3091741B389F940939789009304080040
:1025C00063C6071033683801E31E08B4130E000019
:1025D00093070000130700006FF05FC01305F07F42
:1025E000630EA31A1305800313061000E344F5C815
:1025F000370680003367C7006FF0DFC4B70980FF7C
:102600009389F9FF3309F940B37937016FF01FB7A8
:10261000938607FE13060002B3D6D800638AC7006C
:1026200013060004B307F640B397F800336FFF00BA
:102630003336E0013366D6006FF09FACB70680FFFB
:102640009386F6FFB307F9403377D7001318D70105
:1026500033683801135737006FF09FEDB366B7004A
:102660006386061E9386F7FF638E060A1305F07FC6
:102670006380A7149307800393091000E3C6D7E48F
:10268000938706006FF05FE1130E04009307F07F5D
:1026900013070000130800006FF05FB49307F07F8A
:1026A000E384F6FE338FE501B335BF00B3071701AE
:1026B000B387B7001396F701135F1F00B364E601F9
:1026C00093D91700138906006FF05FAB3306BF4044
:1026D000B387E8403337CF0093040600B389E7405F
:1026E000138406006FF01FA413163600135636002D
:1026F00013840600138708006FF05FE2E31203DE25
:102700006306081C13D73800131636009398D801B7
:1027100033671701135636003367C700138406006A
:102720006FF0DFDD338FE501B3081701B335BF006C
:10273000B389B8009397890093040F0063D4070E00
:10274000130920006FF01FBD338FE541B308174117
:10275000B3B5E50193040F00B389B8401309100025
:102760006FF01F9B938607FE13060002B3D6D800B6
:10277000638AC70013060004B307F640B397F80056
:10278000336FFF00B339E001B3E9D9006FF05FB6F2
:1027900013163500935936006FF05FEB13163600B1
:1027A0001356360013840600138708006FF01FD4F9
:1027B0001316360013563600138708006FF01FD328
:1027C000138507FE130600023355A700638AC7006E
:1027D00013060004B307F640B317F700B3E5F5009E
:1027E0003336B0003366A6006FF0DFA8E38206FC44
:1027F00033EFE801E3160FD06FF0DFCEE30808DC1B
:10280000131836009397D8011358380013D738009F
:102810003368F8003377D701138E06009307000062
:102820006FF0DF9B930710006FF0DFC2B305BF406E
:10283000B388E8403337BF0093840500B389E8408C
:1028400013840600130910006FF09F8C13163600D6
:1028500013563600138708006FF05FCC131636004E
:1028600093593600138708006FF05FDE938607FEEA
:1028700013060002B356D700638AC700130600048C
:10288000B307F640B317F700B3E5F500B339B0006E
:10289000B3E9D9006FF05FC313D634009307090082
:1028A000138709006FF09FC793060002B386F640B6
:1028B000130600006FF05F8B33E8C900E30808D00F
:1028C00093D93900130706006FF05FD8130E00008C
:1028D0009307F07F370708006FF05F909317D701D9
:1028E0001357370033E807013377D7019307000008
:1028F0006FF0DF8E1318D70193D535003368B80019
:1029000013573700138406006FF09FC2130101FDB7
:1029100093D74501232481022322910223202103FE
:10292000232E3101232A51019394C500232611023D
:10293000232C4101232861012326710123248101D5
:1029400093F7F77F13040500930A060093890600A6
:1029500093D4C40013D9F501638407421307F07FB1
:102960006386E70A939634001357D5013367D7007F
:10297000B7068000B364D700131A3500138C17C054
:10298000130B0000930B000093D749011397C90064
:1029900093F7F77F138F0A001354C70093D9F901F7
:1029A0006380070A1307F07F638EE7141317340060
:1029B00093D5DA01B3E5E500938717C037078000A8
:1029C00033E4E500139F3A00B38887011303000046
:1029D0001307A00013851800634C670BB34539013A
:1029E000930720001388050063C66715130BFBFFD0
:1029F0001307100063606717630AF33C9304040035
:102A0000130A0F00930B03006F00C00933EAA40000
:102A100063180A3C93D749011397C90093F7F77FCE
:102A200093040000130B8000130CF07F930B200025
:102A3000138F0A001354C70093D9F901E39407F6E2
:102A4000B36754016382073C6300044A1305040022
:102A5000EF10807B93080500130755FF9307D00103
:102A6000138F88FFB387E740B3D7FA003317E40129
:102A700033E4E700339FEA01B3081C419388D8C0D0
:102A80001307A0001303000013851800E35867F52F
:102A90009305090093072000638AFB3293073000F7
:102AA000638CFB489307100013880500639AFB466C
:102AB0009307000093060000130700008320C10263
:102AC0000324810293974701B3E7D7009316F801D7
:102AD000B3E7D70083244102032901028329C101FE
:102AE000032A8101832A4101032B0101832BC100A9
:102AF000032C8100130507009385070013010103D0
:102B000067800000336754019308FC7F630A073035
:102B1000371700003348390113070780136B3B0058
:102B20009306A000930508003305EC0063C06639E6
:102B30001303300013061000331666011377065393
:102B4000E31A07F4937706246394073C1376860808
:102B50006312062EB70F0100938EFFFFB377DA01E1
:102B600093560A01B37EDF01135E0F013387D7034B
:102B70003383D603935507013306FE0233066600FE
:102B8000B385C500338FC60363F46500330FFF01BF
:102B9000B70301001386F3FF33F3C500935F04010D
:102BA0003377C7003374C40013130301B382870261
:102BB0003303E30093D505013387860213D6020160
:102BC000B387FF02B387E7003306F600B387F60347
:102BD0006374E600B3877700370901009309F9FFB2
:102BE0003377360193D30401B3F63401B3F23201E3
:102BF00013170701B384DE0233075700135606018B
:102C00003306F600B385E500B302DE0293D7040174
:102C1000B38ED303B382D201B3875700330E7E0243
:102C200063F4D701330E2E01B7090100938EF9FF2B
:102C3000B3F2D70193D70701B387C701B3FED4011D
:102C4000939202013309D402B382D2013384830206
:102C5000135E0901B386DF02B3868600330EDE0001
:102C6000B38E7F0263748E00B38E3E01B70F0100F6
:102C7000938FFFFFB376FE01939606013379F90136
:102C8000B385E501B38626013386C60033B7E50078
:102C90003307E600338F5500B307F700B335BF00A5
:102CA000B385B700B336D6003336C700B3E6C600E7
:102CB00033B7E700135E0E01B3B7F500B386C60164
:102CC0003367F70093179F003307D700B3E7670018
:102CD0003307D701B337F00013567F01131797005E
:102CE00093D67501B3E7C7009395950033EAB70013
:102CF00093177700B364D70063D0070213571A0005
:102D000093771A009396F401B367F70033EAD7007C
:102D100093D41400930805001386F83F6356C0123D
:102D200093777A00638007029377FA0013074000D5
:102D3000638AE70013074A00B3374701B384F400FE
:102D4000130A07009397740063DA0700B70700FFC0
:102D50009387F7FFB3F4F400138608409307E07FEE
:102D600063C4C71C93573A001397D40193969400F9
:102D70003367F70093D6C6009377F67F6FF01FD4C2
:102D800033EAA40063080A06638E04121385040064
:102D9000EF10804713060500930655FF1307D00177
:102DA000930786FF3307D7403357E400B396F40008
:102DB000B364D700331AF4009307D0C0338CC740F4
:102DC000130B0000930B00006FF01FBC138805006D
:102DD0009307F07F93060000130700006FF01FCEEB
:102DE000130A0500130BC000130CF07F930B300087
:102DF0006FF09FB993040000130B4000130C000008
:102E0000930B10006FF05FB8136B1B0093080C005E
:102E100013040000130F0000130310006FF05FBBDA
:102E2000136B2B0013040000130F0000130320008A
:102E30006FF01FBA93040400130A0F00930B0300F2
:102E4000938509006FF01FC513071000631006106B
:102E50009388E84133161A013336C000B398140141
:102E6000B357EA00336616013366F60093777600AF
:102E7000B3D5E400638007029377F60013074000A0
:102E8000638AE7009307460033B6C700B385C500E1
:102E90001386070013958500930710009306000022
:102EA00013070000E34C05C06F00C0101307F000CB
:102EB0006310EB1213080000B706080013070000A8
:102EC0006FF0DFBFEF104034930655019307C00148
:102ED00013060502E3D4D7EC130585FF130A00009F
:102EE000B314A4006FF05FED13850A00EF10C0313A
:102EF000130755019307C00193080502E3D0E7B615
:102F0000130585FF130F00003394AA006FF0DFB69E
:102F1000130800009307F07FB70608006FF01FBA90
:102F2000930805006FF05FDF9307F07F93060000C2
:102F3000130700006FF09FB8130800009307F07F9D
:102F4000B7060800130700006FF05FB73307C740EC
:102F500093078003E3CEE7B49307F001E3DAE7EEEB
:102F6000930710FEB387C74093060002B3D7F4005F
:102F70006308D7009388E843B3981401336A1A01B1
:102F8000333640013366F60013777600930600006F
:102F9000630807029377F6001307400093050000CB
:102FA000638AE7009307460033B6C700B335C00015
:102FB00013860700939695001397D50193D6C60004
:102FC000135636003367E600930700006FF01FAF1B
:102FD00093040400138A0A00930B300093850900C0
:102FE0006FF05FAB93D74501B70610001387F6FF6C
:102FF00093F7F77F1306E03F3377B70093D5F501DA
:10300000635EF6001306D041635EF600370500806C
:103010001305F5FF3385A500678000001305000048
:1030200067800000130630433306F6401308F001B2
:103030003367D7006350C80293063041B387F64028
:103040003357F7003305E040E39C05FC1305070008
:10305000678000009387D7BE3317F7003355C5004C
:103060003367A7006FF01FFE130101FF2326110035
:103070002324810023229100630A05041357F5419C
:10308000B344A700B384E44093070500138504000C
:1030900013D4F701EF1040179307E041B387A7401F
:1030A0001307A00093F7F77F6340A7061307B0004C
:1030B0003307A74033D7E400130555011317C700A2
:1030C000B394A4001357C7006F004001130400001D
:1030D0009307000013070000930400009397470133
:1030E0001314F401B3E7E7008320C100B3E78700BE
:1030F0000324810013850400938507008324410085
:103100001301010167800000130555FF3397A400E8
:103110001317C7001357C700930400006FF01FFC7C
:10312000B7078000130101FF9356750113D775018E
:103130009387F7FF33F6A7001378F70F2324810056
:10314000232021011354F50113F9F60F33F5B700CD
:103150002326110093D5F501930606009308040079
:1031600013173600131E3500330309416308B404F6
:10317000635260026318080663040E1E9307F3FF90
:10318000638E073C9306F00F6304D31E138307007E
:103190006F004006630403143303284163120928B7
:1031A000630C071A9307F3FF6382073E9306F00F41
:1031B0006300D33A138307006F0080276350601EBB
:1031C000630408169307F00F6304F91AB7070004A5
:1031D000336EFE009307B00163DA672A1307170006
:1031E0006F0000099307F00F6304F918B707000494
:1031F000336EFE009306B0019307100063CE6600A5
:1032000093070002B3876740B317FE00B3566E0002
:10321000B337F000B3E7F6003307F74093175700D2
:1032200063D8071623229100B70400049384F4FFA7
:10323000B374970013850400EF00107D1305B5FFEC
:10324000B394A400634025193305254113051500E7
:10325000130700023307A7403397E4003337E00039
:10326000B3D4A40033E7E400832441001309000031
:1032700093777700638A07009377F700130640007F
:103280006384C700130747009317570063DC070CDC
:10329000930719009306F00F930804006384D70E78
:1032A000B70600FC9386F6FFB376D70013F5F70F49
:1032B0009396660093D696008320C1000324810074
:1032C000131575013365D5009397F80103290100A3
:1032D0003365F50013010101678000001306190032
:1032E0001376E60F63100618631009066308072AB1
:1032F00013050000E3020EFCB306C7411396560007
:10330000635E062AB306EE40139756006358072CF7
:10331000B70700FC9387F7FFB3F6F6009388050024
:10332000130510006FF0DFF8630C0E029307F3FF34
:10333000638A071E9306F00F630CD3021383070002
:103340006FF05FE963080720930800001305F00F92
:10335000B70640006FF05FF61384050013070E00F8
:10336000130903009307F00F135637006318F91C75
:10337000E31C06FC930804001305F00F93060000FD
:103380006FF09FF31305F00F930600006FF0DFF26C
:1033900093777700E39207EE6FF0DFFC630003049E
:1033A00033032841631C0912E30A07FA9307F3FF6A
:1033B000638A07169306F00F630ED3181383070072
:1033C0006F00C012370700FC1307F7FF33F7E40064
:1033D0003309A940832441006FF09FE913061900C7
:1033E0009375E60F639E0510E31E09F46302071C44
:1033F00013050000E3020EEC330EC70113175E0045
:1034000093563E006350071C3707801F1307F7FFD2
:10341000B3F6E600B3F6F600130510006FF0DFE92F
:103420009307F00F6306F812B70700043367F7003D
:103430009306B0019307100063CE66009307000265
:10344000B3876740B317F700B337F000335767000F
:10345000B367F7003307FE40130908001384050023
:103460006FF0DFDB23229100B304C7419397540030
:1034700063C4070AE39004DC83244100930800003E
:1034800013050000930600006FF01FE3930700028E
:10349000B3876740B317FE0033536E00B337F000B5
:1034A0003363F3003307670093175700E3D207EE47
:1034B000130919001305F00F93060000E30EA9DEAF
:1034C000B706007E935717009386F6FF1377170011
:1034D000B3F7D70033E7E7006FF09FD99307F00FFA
:1034E000630AF806B70700043367F7009307B001D3
:1034F00063DC670613071E00130908006FF05FD72F
:103500009307F00FE300F6E8330EC70113571E00D0
:10351000130906006FF0DFD5B304EE4013840500F5
:103520006FF05FD13307C7019317570013092000CD
:10353000E3C807F813563700130910001316960056
:10354000935696001375F90F930804006FF0DFD6B9
:1035500013840500130605006FF09FE13307C74190
:10356000130910006FF09FCB93070002B3876740E9
:10357000B317F70033536700B337F0003363F3003A
:103580003307C301130908006FF01FF23307EE4041
:1035900013840500130910006FF05FC863080E0262
:1035A0009306050093880500130500006FF0DFD037
:1035B00093060500130500006FF01FD06388060214
:1035C00093D63600B3F6F6006FF01FCF93080000D5
:1035D00013050000930600006FF01FCE93D636004F
:1035E000B3F6F600938805006FF01FCD9308000036
:1035F000930600006FF05FCC13567501370780000B
:103600001307F7FF93D675011376F60F1308F00F23
:10361000B378A7009357F5013377B70013F5F60F8A
:1036200093D5F501630006056300050363180604DE
:1036300063100502630A070663900808130510006B
:1036400063800506678000006314070663140600A4
:10365000E38608FE6382B704639407041305100031
:103660006780000063960804E318C5FE6312070430
:10367000E394B7FE1305000067800000E30E05FC2D
:10368000E39CB7FCE34AC5FC6348A600E36617FD6C
:1036900013050000E3F8E8FA13051000E39407FAB5
:1036A0001305F0FF67800000E39808FA67800000C8
:1036B0001305E0FF67800000E38AB7FC6FF0DFF9D5
:1036C00013567501370780001307F7FF93D675016E
:1036D0001376F60F1308F00FB378A7009357F50190
:1036E0003377B70013F5F60F93D5F501630206059E
:1036F00063000503631C060463120502630E0706DC
:1037000063940808130510006384050667800000B1
:1037100013052000E31C07FE63140600E38408FE83
:103720006384B704639607041305100067800000E4
:1037300063980804E318C5FE13052000E31807FC8E
:10374000E392B7FE1305000067800000E30C05FC60
:10375000E39AB7FCE348C5FC6348A600E36417FDA1
:1037600013050000E3F4E8FA13051000E39007FAEC
:103770001305F0FF67800000E39608FA67800000F9
:103780001305200067800000E38AB7FC6FF09FF903
:10379000130101FD9357750123202103232C4101BF
:1037A00023261102131A9500232481022322910259
:1037B000232E3101232A51012328610193F7F70FAA
:1037C000135A9A001359F501638007241307F00F69
:1037D0006386E716131A3A0037070004336AEA00D3
:1037E000938917F893040000130B000093D7750119
:1037F000939A950093F7F70F93DA9A0013D4F50193
:10380000638207161307F00F638AE71C939A3A0046
:10381000938717F837070004B3EAEA00B389F90081
:10382000930500009307A0001386190063C897143E
:1038300033458900930720009306050063D8971E3F
:10384000130710003317970093770753639A0712F3
:10385000937707246398072613778708631C072448
:10386000B70801009387F8FF93550A0113D80A019E
:10387000337AFA00B3F7FA0033854703B387F502CA
:1038800013570501330A4803330AFA003307470187
:10389000B38505036374F700B3851501370801008C
:1038A0001308F8FFB37707019397070133750501F4
:1038B000B387A70013570701139A67003307B700B0
:1038C00093D7A70113176700333A4001336AFA0010
:1038D00093174700336A470163DA070093571A00CA
:1038E000137A1A0033EA4701930906009387F90710
:1038F0006352F01E13777A00630A07001377FA0009
:10390000130640006304C700130A4A0013174A0055
:10391000635A0700B70700F89387F7FF337AFA0076
:10392000938709081307E00F6346F72213176A000D
:103930001357970093F7F70F6F00C00663140A162A
:1039400093D77501939A950093F7F70F930480002E
:103950009309F00F130B200093DA9A0013D4F501AA
:10396000E39207EA63980A1093E414009307A00017
:103970009305100013861900E3DC97EA130509008C
:1039800093072000630CFB0893073000630CFB12C5
:103990009307100093060500631AFB1A93070000B3
:1039A000130700008320C1020324810213957701CD
:1039B0003365E5009397F601832441020329010250
:1039C0008329C101032A8101832A4101032B0101BB
:1039D0003365F50013010103678000001387F90FB9
:1039E000638A0A0A93E434009306A0001386091040
:1039F00063C09614B3468900138506009309070037
:103A0000930530006FF0DFE363100A049304400075
:103A100093090000130B10006FF05FDD93060500A3
:103A20009307F00F130700006FF0DFF79384F4FFA4
:103A300013071000E36697E2E382F5FE138A0A009B
:103A4000138B05006FF0DFF413050A002326B10085
:103A5000EF00807B9307B5FF331AFA009307A0F8B5
:103A60008325C100B389A74093040000130B000015
:103A70006FF0DFD713850A00EF0000799307B5FFD9
:103A80003385A940B39AFA009309A5F8930500007D
:103A90006FF05FD993E42400930907009305200099
:103AA0006FF05FD89304C0009309F00F130B300040
:103AB0006FF0DFD3138A0A00138B0500130504008F
:103AC0006FF01FEC930600009307F00F37074000DC
:103AD0006FF05FED13061000638C07003306F640AD
:103AE0009305B0019307000013070000E3CCC5EA7B
:103AF0001387E9093317EA003337E000B357CA00E8
:103B0000B3E7E70013F77700630A070013F7F7003E
:103B1000130640006304C7009387470013975700BC
:103B20006350070493071000130700006FF09FE72E
:103B30009305F0009306000037074000138A0A003F
:103B4000130B3000E380B4E66FF05FF793090600D3
:103B50006FF0DFD99307F00F130700006FF09FE4B9
:103B60009397670013D79700930700006FF09FE3C8
:103B7000B7078000130101FF9387F7FF93D6750104
:103B800033F8A70033F7B7002324810023229100E4
:103B9000135475019354F5012326110093F6F60F83
:103BA0001305F00F130608001374F40F13830400B9
:103BB0009317380093D5F501131E3700638AA604C6
:103BC00093C81500B305D440638214036352B04810
:103BD00063960606630C0E1C1387F5FF630C073C07
:103BE000638EA51C930507006F0000066352B04862
:103BF000638E06186304A41C37070004336EEE00BE
:103C00001307B001635CB72C938717006F00800B1C
:103C1000130514F0631E0E1093C815006380142959
:103C2000630E051A93840800630C041013F3140048
:103C30001305F00F130600006F00400D6300A41879
:103C400037070004336EEE009306B001130710002F
:103C500063CEB600130700023307B7403317EE00F8
:103C6000B356BE003337E00033E7E600B387E740E2
:103C700013975700635E07142320210137090004BE
:103C80001309F9FF33F9270113050900EF00C057A5
:103C90001305B5FF3319A90063488518330585401E
:103CA0001305150093070002B387A740B317F90067
:103CB000B337F0003359A900B367F90003290100B5
:103CC0001304000013F77700630A070013F7F700E7
:103CD000930640006304D70093874700139757006B
:103CE0006358070C130414001307F00FE300E4F407
:103CF000370600FC1306F6FF33F6C7001375F40F02
:103D0000131666001356960013F314008320C100A7
:103D100003248100131575013365C5009317F30162
:103D2000832441003365F500130101016780000021
:103D300093880500638AB4126302050A63120420A3
:103D40009305F00F638007061386F5FF630C0628C2
:103D50001305F00F93840800638AA5249305B0012E
:103D60001307100063CEC500130700023307C740D6
:103D70003397E70033D6C7003337E0003367E600F8
:103D8000B307EE40138406006FF09FEE63000E024F
:103D90001387F5FF6304071E6382A50293050700DE
:103DA0006FF01FE69384080093070E00138405004C
:103DB0001307F00F13D83700631EE41CE30808E66E
:103DC000130300001305F00F370640006FF01FF4D7
:103DD00013F77700E31C07EE6FF09FFD93061400C6
:103DE00093F6E60F639E0604E31C04FC638407203D
:103DF00013050000E30C0EF03387C74193165700FC
:103E000063D206223306FE409317560063D407227E
:103E1000B70700FC9387F7FF3376F600938408001A
:103E2000130510006FF0DFEDB70700FC9387F7FF75
:103E3000B377F9003304A440032901006FF09FE831
:103E4000232021013389C741131759006342071208
:103E5000E31C09E20329010013030000130500001D
:103E6000130600006FF09FEA630C05026310041450
:103E70009305F00FE38A07F21386F5FF630006103F
:103E80001305F00F6384A5121307B001635AC7121C
:103E900093071E00138406006FF0DFE2631C050821
:103EA0009306140093F5E60F6398050A631E040E4B
:103EB000638C071413050000E30A0EE4338EC70178
:103EC00093573E009397970013175E0013D6970001
:103ED000E35E07E2130510006FF05FE313070002D3
:103EE0003307B7403317EE00B355BE003337E00059
:103EF000B3E5E500B387B70013975700E35A07EC23
:103F0000130414001307F00F6318E4001305F00FF7
:103F1000130600006FF09FDFB706007E13D717006F
:103F20009386F6FF93F717003377D700B367F70050
:103F30006FF05FD9E31C04CE9305F00F6FF09FF391
:103F400093840500130807006FF05FE793061400E1
:103F500093F5E60FE38E05F41307F00FE388E6FA16
:103F6000338EC70193571E00138406006FF09FD550
:103F70003309FE40938408006FF01FD1B387C70157
:103F80001397570013042000E34807F813D83700AD
:103F90001304100013189800135698001375F40FAB
:103FA00013F314006FF09FD6E39C07E0130807009B
:103FB0006FF0DFE0B387C741130410006FF05FCBF1
:103FC000130700023307C7403397E70033D6C70013
:103FD000B337E0003366F600B307C601138406006A
:103FE0006FF09FF1B307FE409384080013041000A4
:103FF0006FF01FC863000E0213830800130607004A
:10400000130500006FF09FD0130607001305000092
:104010006FF0DFCF1303000013050000130600004C
:104020006FF0DFCE63000702131767001356970087
:104030006FF0DFCD13166600138308001356960049
:104040006FF0DFCC13030000130600006FF01FCCED
:10405000E38605D83386864093050600E30404CE44
:1040600037070004B3E7E700938408006FF01FCF21
:10407000E38E05EC33868640631604009305060044
:104080006FF05FDF37070004B3E7E7006FF0DFDFB3
:1040900013577501370680009307F6FF1377F70F64
:1040A0009305E007B3F6A7009357F5011305000049
:1040B00063D4E50063840700678000009307E0098C
:1040C0001305F0FFE3CAE7FE93055009B3E7C60006
:1040D00063D8E5001307A7F63395E7006780000073
:1040E000130560093305E54033D5A700678000005C
:1040F000130101FF23261100232481006308050416
:1041000013040500EF0040109307E009B387A740B0
:1041100013076009634CF70413078000630EE50C76
:10412000130585FF3314A4001314940013F5F70F3F
:1041300013549400131575018320C1003365850065
:1041400003248100130101016780000013050000B2
:1041500013040000131575018320C1003365850029
:1041600003248100130101016780000013079009F7
:104170006344F7061307B5FF3317E400B70600FCE6
:104180009386F6FF137677003374D7006304060234
:104190001377F70013064000630EC70013044400B2
:1041A00013175400635807009307F0093374D400C1
:1041B000B387A7401314640013F5F70F135494004A
:1041C000131575018320C100336585000324810028
:1041D00013010101678000001307B5019306500029
:1041E0003317E400B386A6403337E0003354D400DD
:1041F000336787006FF09FF81314940013549400F2
:10420000130560096FF01FF5B7070100637AF50227
:104210009337051093B717009397370013070002E1
:104220003307F7403355F50097170000938747A7EA
:10423000B387A70003C507003305A74067800000C8
:10424000B70700016374F502930700013355F500C9
:10425000971700009387C7A4B387A70003C507007B
:10426000130700013305A740678000009307800112
:104270003355F50097170000938787A2B387A700EF
:1042800003C50700130780003305A74067800000BF
:10429000303132333435363738394142434445467C
:1042A000000000003031323334353637383961623E
:1042B00063646566000000003C466C6F6174696E63
:1042C0006720706F696E74207072696E74696E67B2
:1042D000206E6F7420656E61626C652E20506C6577
:1042E00061736520456E61626C652069742061743C
:1042F000206273702E682066697273742E2E2E3EB3
:10430000000000006E6574776F726B20696E6974CF
:1043100069616C697A6174696F6E2073746172741B
:1043200065640D0A00000000726567202564207234
:104330006561646261636B3A200000000D0A000051
:10434000696E697469616C697A6564210D0A00009F
:1043500031393230783130383020402033304650D7
:10436000530000003139323078313038302040206D
:104370003630465053000000323536307831343410
:104380003020402033304650530000003235363064
:10439000783134343020402036304650530000000D
:1043A0003338343078323136302040203234465081
:1043B000530000003338343078323136302040201A
:1043C00033304650530000004173736572742066A9
:1043D00061696C7572650A000D0A2A2A2A20435207
:1043E0004153482064756520746F2025733A202559
:1043F000642A2A2A0D0A00007461726765742065B8
:1044000078706F737572652076616C75653A2025DA
:10441000642C20726564206761696E3A2025642CE3
:1044200020677265656E206761696E3A2025642C8D
:1044300020626C7565206761696E3A2025640D0AFB
:1044400000000000676C6F62616C206176657261CC
:1044500067653A2025642C206761696E3A202564DF
:104460002C206E6577206761696E3A2025640D0AFD
:1044700000000000636C61696D000000636175738A
:1044800065000000706C696320696E697469616C15
:10449000697A65640D0A0000496E74657272757000
:1044A0007420696E697469616C697A65640D0A00CB
:1044B0007265675F696E69742073746172740D0A46
:1044C000000000007265675F696E697420646F6E3A
:1044D000650D0A0063616D5F6932635F696E6974BF
:1044E0002073746172740D0A0000000063616D5FD7
:1044F0006932635F696E697420646F6E650D0A00CE
:1045000043616D65726120696E697469616C697A75
:1045100065640D0A000000002D2D2D2D2D2D2D2D53
:104520002D2D2D2D2D2D2D2D2D2D2D2D2D2D2D2DBB
:104530002D2D2D0D0A00000043686F6F73652072EA
:1045400065736F6C7574696F6E20616E642066723E
:10455000616D6520726174653A0D0A0025643A2028
:104560000000000043686F6F736520706978656CA8
:1045700020666F726D61743A0D0A000025633A205F
:1045800000000000202020207573696E6720000065
:104590000D0A0D0A00000000756E65787065637481
:1045A0006564207265736F6C7574696F6E20262068
:1045B0006672616D6520726174650D0A000000000D
:1045C000756E737570706F7274656420706978654C
:1045D0006C20666F726D61740D0A00005669646527
:1045E0006F2053747265616D696E67203130470DBD
:1045F0000A000000757365722074696D6572206928
:104600006E697469616C697A6564210D0A00000045
:10461000C00400F9000500F9000500F9000500F9E3
:10462000000500F9000500F9000500F9000500F992
:10463000000500F9000500F9000500F95C0400F927
:10464000A80400F9000500F9F00400F9000500F9DC
:10465000000500F9000500F9000500F9000500F962
:10466000000500F9000500F9000500F9000500F952
:10467000000500F9000500F9000500F9900400F9B3
:10468000000500F9000500F9000500F9000500F932
:10469000D80400F980070000C00300002C000000CF
:1046A000170700001707000038040000050000008D
:1046B000240000000400000001000000504300F945
:1046C00080070000C00300002C00000074020000FE
:1046D000A8020000380400000500000024000000CB
:1046E0000400000001000000644300F9000A00001B
:1046F000000500002C0000004204000042040000FD
:10470000A0050000050000002400000004000000D7
:1047100001000000784300F9000A000000050000D5
:104720002C000000940000001A010000A005000009
:10473000050000002400000004000000010000004B
:104740008C4300F9000F0000800700002C000000DF
:10475000EA010000F40100007008000005000000FC
:10476000240000000400000001000000A04300F944
:10477000000F0000800700002C000000C8000000AF
:10478000C8000000700800000500000024000000C0
:104790000400000001000000B44300F9800700009D
:1047A000C00300002C0000001707000017070000DE
:1047B0003804000005000000240000000400000090
:1047C00001000000880F00F9C80F00F9C80F00F9B8
:1047D000C80F00F9C80F00F9C80F00F9C80F00F999
:1047E000C80F00F9C80F00F9C80F00F9C80F00F989
:1047F000240F00F9700F00F9C80F00F9B80F00F985
:10480000C80F00F9C80F00F9C80F00F9C80F00F968
:10481000C80F00F9C80F00F9C80F00F9C80F00F958
:10482000C80F00F9C80F00F9C80F00F9C80F00F948
:10483000580F00F9C80F00F9C80F00F9C80F00F9A8
:10484000C80F00F9A00F00F9420321004303F6004E
:1048500040030A00410359004403000045030000DF
:104860004603000047030000480311004903FF000E
:104870004A030A004B031F002002620022020100CB
:10488000000900000109110002090A0000320100BC
:1048900001320100D5320100D6320000DB320100C6
:1048A000DF3200000C3500000D3500000804000068
:1048B000090400000A0400000B0400000C040A00B4
:1048C0000D0400000E0405000F04A0004C030A00B4
:1048D0004D0300004E0305004F03A0000103050037
:1048E00003030200050302000603000007037C0027
:1048F0000B0302000D03040010030100A03C0000A4
:10490000A13C6400A43C0000A53C0000A63C0000C3
:10491000A73C0000AA3C0000AB3C0000B83C0000F3
:10492000B93C0800BA3C0000BB3C0000BC3C0000A5
:10493000BD3C2200BE3C0000BF3C0000020205005E
:1049400003029700240201002502F4001631010041
:104950001731F400040200000502000016020000F6
:104960001702000018020100190200000E020100E7
:104970000F02000018310000193100001A31010047
:104980001B3100001A3400001B3400001C340000EE
:104990001D3400001E3400001F34A000203400002D
:1049A000213478006633000067330000683300006C
:1049B0006933000042033D004303200040030A0026
:1049C0004103590044030000450300004603000072
:1049D00047030000480311004903FF004A030A008F
:1049E0004B031F00200262002202010000090000A8
:1049F0000109110002090A00003201000132010020
:104A0000D5320100D6320000DB320100DF32000077
:104A10000C3500000D3500000804000009040000FA
:104A20000A0400000B0400000C0412000D04000036
:104A30000E040A000F0420004C0312004D03000076
:104A40004E030A004F032000010305000303020088
:104A5000050302000603000007037C000B030200AD
:104A60000D03040010030100A03C0000A13C640001
:104A7000A43C0000A53C0000A63C0000A73C0000B0
:104A8000AA3C0000AB3C0000B83C0000B93C080068
:104A9000BA3C0000BB3C0000BC3C0000BD3C3C00FC
:104AA000BE3C0000BF3C000002020A0003022900D5
:104AB000240201002502F400163101001731F40030
:104AC00004020000050200001602000017020000A8
:104AD00018020100190200000E0201000F0200007E
:104AE00018310000193100001A3101001B3100009B
:104AF0001A3400001B3400001C3400001D34000078
:104B00001E3401001F342000203400002134D8005E
:104B1000663300006733000068330000693300002B
:104B20003C30000042390300243180002531070069
:104B300026313800273104002031000021310000E7
:104B40002231000023310000D0303800D130040081
:104B5000D2308000D3300700D4308700D530050034
:104B6000D63000001030000011300000123000007C
:104B7000403263004132000042320000E830000061
:104B8000E9303200EA300000EB3000000030000075
:104B90007C3001007D300100143500001535000027
:104BA000B4350F00B53500004032630041320000DB
:104BB00042320000D430B100D5300600D6300000BB
:104BC0003C30000042390300243100002531080048
:104BD000263100002731060020310000213100007D
:104BE0002231000023310000D0300000D130080015
:104BF000D2300000D3300800103000000030000038
:104C00000001000000010200030100000801000093
:104C10000201010000010000681E00F9A81E00F951
:104C2000A81E00F9A81E00F9A81E00F9A81E00F988
:104C3000A81E00F9A81E00F9A81E00F9A81E00F978
:104C4000A81E00F9041E00F9501E00F9A81E00F964
:104C5000981E00F9A81E00F9A81E00F9A81E00F968
:104C6000A81E00F9A81E00F9A81E00F9A81E00F948
:104C7000A81E00F9A81E00F9A81E00F9A81E00F938
:104C8000A81E00F9381E00F9A81E00F9A81E00F998
:104C9000A81E00F9A81E00F9801E00F900010202FA
:104CA00003030303040404040404040405050505C4
:104CB00005050505050505050505050506060606A0
:104CC0000606060606060606060606060606060684
:104CD0000606060606060606060606060707070770
:104CE0000707070707070707070707070707070754
:104CF0000707070707070707070707070707070744
:104D00000707070707070707070707070707070733
:104D1000070707070707070707070707080808081F
:104D20000808080808080808080808080808080803
:104D300008080808080808080808080808080808F3
:104D400008080808080808080808080808080808E3
:104D500008080808080808080808080808080808D3
:104D600008080808080808080808080808080808C3
:104D700008080808080808080808080808080808B3
:104D800008080808080808080808080808080808A3
:104D900008080808080808080808080833322D62BF
:104DA000697420415247423838383800000000000A
:104DB00032342D626974205247423838380000007E
:104DC0000000000031362D626974205247423536AA
:104DD00035000000000000000A0000000000000094
:104DE000000000000000F83F0000000000C082400A
:104DF00000007A4400007A450000C03F0000803F78
:104E00000E0301000F032E00000000000000000050
:024E10000000A0
:04000005F9000000FE
:00000001FF
