:02000004F90001
:10000000978100009381813E1381C189178500008B
:10001000130585BC97850000938505BC1386C181B7
:1000200063FCC5008322050023A05500130545008D
:1000300093854500E3E8C5FE1385C1819385018260
:100040006378B5002320050013054500E36CB5FE79
:10005000EF70102FEF70C07A6F0000006780000013
:107800006F00C01237070100B74601F81307F7FFF2
:1078100083A74600B3F7E700E38C07FEB717000025
:107820009387078023A0F6006780000037070100D8
:10783000B74601F81307F7FF83A74600B3F7E70041
:10784000E38C07FE9307002023A0F600374701F8DA
:107850008327470093D70701E38C07FE0325070022
:107860001375F50F6780000037070100B74601F870
:107870001307F7FF83A74600B3F7E700E38C07FE83
:107880001365051023A0A60067800000B7C7B0F8F5
:1078900003A787FFB7C6B0F81307470683A786FF7D
:1078A000B307F740E3DC07FE37070100374601F86E
:1078B0001307F7FF9306001083274600B3F7E7008E
:1078C000E39CD7FE67800000B70601F80347050078
:1078D00063100704370701F88327470093D7070190
:1078E00093F7F70FE38A07FE9307A0002320F70022
:1078F000370701F88327470093D7070193F7F70F5E
:10790000E38A07FE9307D0002320F700678000007A
:107910001305150083A7460093D7070193F7F70FC8
:10792000E38A07FE23A0E6006FF05FFA378500F9CF
:10793000130101FE130545BD232E1100232C8100E8
:10794000232A9100EFF05FF8B74701F823A407005E
:107950001307200023A0E7029306500023A2D702BA
:1079600023A4E7021307700023A6E702EFF01FF23B
:10797000EFF05FE937070100B74601F81307F7FF9B
:1079800083A74600B3F7E700E38C07FEB7170000B4
:107990009387078823A0F6001305B00AEFF0DFEC09
:1079A000EFF05FE6EFF09FEEB7C7B0F803A787FFF1
:1079B000B7270000938707713307F700B7C6B0F801
:1079C00083A786FFB307F740E3DC07FE3707010014
:1079D000B74601F81307F7FF83A74600B3F7E700A0
:1079E000E38C07FEB71700009387078823A0F600F3
:1079F00013050009EFF05FE713050000EFF0DFE685
:107A000013050000EFF05FE613050000EFF0DFE57F
:107A1000EFF0DFE1B7C7B0F803A787FFB777000043
:107A2000938707533307F700B7C6B0F883A786FFDD
:107A3000B307F740E3DC07FE2326A100EFF09FDC4D
:107A4000EFF0DFE40325C10037070100B74601F876
:107A50001307F7FF83A74600B3F7E700E38C07FEA1
:107A6000B71700009387078823A0F6009307D00973
:107A70006304F50C9307200C6316F5001305900EB4
:107A8000EFF09FDEEFF01FD8EFF05FE03707010067
:107A9000B74601F81307F7FF83A74600B3F7E700DF
:107AA000E38C07FEB71700009387078823A0F60032
:107AB0001305B000EFF05FDB13050008EFF0DFDA2D
:107AC00013050000EFF05FDA13050000EFF0DFD9D7
:107AD00013050000B78400F9EFF01FD9370400F94F
:107AE00093840480EFF09FD42300A40013041400B7
:107AF000E31A94FEEFF01FD10F10000013000000F6
:107B00001300000013000000130000001300000029
:107B100013000000378500F9130585BEEFF0DFDAAA
:107B2000032481018320C10183244101370300F92B
:107B30001301010267000300130590026FF05FF468
:107B4000130101FF232481002320210117040000D9
:107B50001304840817090000130909083309894030
:107B6000232611002322910013592940630E090096
:107B7000930400008327040093841400130444003A
:107B8000E7800700E31899FE170400001304C404FB
:107B90001709000013094904330989401359294082
:107BA000630E0900930400008327040093841400EB
:107BB00013044400E7800700E31899FE8320C10006
:107BC00003248100832441000329010013010101E2
:047BD00067800000CA
:107BD400426F6F6C6F616465722073746172746557
:107BE40064000000426F6F6C6F6164657220656EA3
:0E7BF400646564000000000000000000000056
:04000005F9000000FE
:00000001FF
